:020000040000FA
:100000000C94DF000C9407010C9407010C94070179
:100010000C9407010C9407010C9407010C94070140
:100020000C9407010C9407010C9407010C94070130
:100030000C9407010C9407010C9407010C94070120
:100040000C94540A0C9407010C94C40A0C949E0A54
:100050000C9407010C9407010C9407010C94070100
:100060000C94F60A0C94070100407A10F35A00A091
:10007000724E18090010A5D4E80000E87648170071
:1000800000E40B54020000CA9A3B000000E1F505B1
:10009000000080969800000040420F000000A086FB
:1000A00001000000102700000000E803000000002D
:1000B0006400000000000A000000000001000000D1
:1000C00000002C76D888DC674F0823DFC1DFAE59EB
:1000D000E1B1B796E5E3E453C63AE651997696E87E
:1000E000E6C28426EB898C9B62ED407C6FFCEFBC02
:1000F0009C9F40F2BAA56FA5F490055A2AF75C932D
:100100006B6CF9676DC11BFCE0E40D47FEF520E662
:10011000B500D0ED902E0300943577050080841E45
:10012000080000204E0A000000C80C333333330FA0
:10013000986E12831141EF8D2114893BE65516CF3D
:10014000FEE6DB18D1844B381BF77C1D901DA4BB49
:10015000E424203284725E228100C9F124ECA1E5FE
:100160003D2700000000240027002A0000000000B6
:10017000250028002B000000000023002600290095
:10018000040404040404040402020202020203033D
:100190000303030301020408102040800102040845
:1001A00010200102040810200000000800020100D5
:1001B000000304070000000000000000150C1124DB
:1001C0001FBECFEFD8E0DEBFCDBF14E0A0E0B1E0AE
:1001D000EAE9FEE302C005900D92A432B107D9F717
:1001E00025E0A4E2B4E001C01D92A13EB207E1F710
:1001F00010E0CFEDD0E004C02197FE010E945B1E0D
:10020000CE3DD107C9F70E94650C0C944B1F0C948E
:100210000000833081F028F4813099F08230A9F019
:1002200008958730A9F08830C9F08430B1F4809106
:1002300080008F7D03C0809180008F778093800045
:10024000089584B58F7784BD089584B58F7DFBCFE5
:100250008091B0008F778093B00008958091B000B6
:100260008F7DF9CFCF93DF93282F30E0F901E85548
:10027000FE4F8491F901EC56FE4FD491F901E058FC
:10028000FE4FC491CC23A1F081110E940901EC2FF3
:10029000F0E0EE0FFF1FEA58FE4FA591B491EC91EC
:1002A000ED2381E090E009F480E0DF91CF910895A3
:1002B00080E090E0FACF1F93CF93DF93282F30E0B8
:1002C000F901E855FE4F8491F901EC56FE4FD491A7
:1002D000F901E058FE4FC491CC23A9F0162F8111EB
:1002E0000E940901EC2FF0E0EE0FFF1FE459FE4FD2
:1002F000A591B4918FB7F894EC91111108C0D095E5
:10030000DE23DC938FBFDF91CF911F910895DE2B09
:10031000F8CFCF93DF9390E0FC01EC56FE4F249191
:1003200080589E4FFC0184918823D1F090E0880F83
:10033000991FFC01EE59FE4FA591B491FC01E459BF
:10034000FE4FC591D49161110EC09FB7F8948C9166
:10035000E22FE0958E238C932881E223E8839FBFD0
:10036000DF91CF9108958FB7F894EC91E22BEC9345
:100370008FBFF6CF3FB7F8948091A9049091AA045B
:10038000A091AB04B091AC0426B5A89B05C02F3F4B
:1003900019F00196A11DB11D3FBFBA2FA92F982FAB
:1003A0008827BC01CD01620F711D811D911D42E0A6
:1003B000660F771F881F991F4A95D1F708958F926E
:1003C0009F92AF92BF92CF92DF92EF92FF924B013A
:1003D0005C010E94BA016B017C010E94BA016C1998
:1003E0007D098E099F09683E734081059105A8F338
:1003F00021E0821A9108A108B10888EEC80E83E0B6
:10040000D81EE11CF11C81149104A104B10429F748
:10041000FF90EF90DF90CF90BF90AF909F908F9024
:1004200008952FB7F8946091A5047091A604809167
:10043000A7049091A8042FBF0895089508950895E2
:10044000AF92BF92CF92DF92EF92FF920F931F93E2
:10045000CF93DF936C017B018B01040F151FEB0120
:100460005E01AE18BF08C017D10759F06991D601D7
:10047000ED91FC910190F081E02DC6010995892B49
:1004800079F7C501DF91CF911F910F91FF90EF9008
:10049000DF90CF90BF90AF900895FC0144815581CB
:1004A000608171818CEB95E00C942002FC01538DEE
:1004B000448D252F30E0842F90E0821B930B54173E
:1004C00010F0CF96089501970895FC01918D828DCB
:1004D000981761F0A28DAE0FBF2FB11D5D968C9164
:1004E000928D9F5F9F73928F90E008958FEF9FEFA3
:1004F0000895FC01918D828D981731F0828DE80F5F
:10050000F11D858D90E008958FEF9FEF0895FC0118
:10051000918D228D892F90E0805C9F4F821B9109E5
:100520008F73992708958FE195E00E94870221E05B
:10053000892B09F420E0822F089580E090E0892B38
:1005400029F00E94930281110C9400000895FC018F
:10055000A48DA80FB92FB11DA35ABF4F2C91848D24
:1005600090E001968F739927848FA689B7892C9381
:10057000A089B1898C91837080648C93938D848DD4
:10058000981306C00288F389E02D80818F7D8083D7
:100590000895EF92FF920F931F93CF93DF93EC0197
:1005A00081E0888F9B8D8C8D98131AC0E889F9891A
:1005B000808185FF15C09FB7F894EE89FF8960831D
:1005C000E889F98980818370806480839FBF81E09E
:1005D00090E0DF91CF911F910F91FF90EF900895E0
:1005E000F62E0B8D10E00F5F1F4F0F731127E02EBB
:1005F0008C8D8E110CC00FB607FCFACFE889F989F3
:10060000808185FFF5CFCE010E94A702F1CFEB8D4F
:10061000EC0FFD2FF11DE35AFF4FF0829FB7F894C6
:100620000B8FEA89FB8980818062CFCFCF93DF93E4
:10063000EC01888D8823B9F0AA89BB89E889F989FA
:100640008C9185FD03C0808186FD0DC00FB607FC2F
:10065000F7CF8C9185FFF2CF808185FFEDCFCE0162
:100660000E94A702E9CFDF91CF9108952091450420
:10067000260F3327331F21323105ECF42091F50486
:10068000FC0190E080E0243069F082E00895A091C0
:1006900045042191AC014B5D5B4FA40FB52FB11DFB
:1006A0002C930196861798F380914504680F609308
:1006B000450480E0089581E008951092F50481E0FA
:1006C0008093F4041092CF0461E082E10E945B0108
:1006D00061E083E10E945B01E9EBF0E080818E7FC5
:1006E000808380818D7F808388E48093B80085E457
:1006F0008093BC000895CF93DF9391E090932404FE
:100700008823B9F0C091B800D091BA008091BC00A4
:100710008A7B8093BC0060E082E10E945B0160E024
:1007200083E10E945B010E945D03D093BA00C093F5
:10073000B800DF91CF9108958F929F92AF92BF92B0
:10074000CF92DF92EF92FF920F931F93CF93DF939D
:10075000D0911E05D13208F0D7C0182FC0911D05C9
:100760000E94BA016B017C018091F50481116BC07C
:1007700082E08093F5041093F4048FEF8093F304E8
:100780001092F204D093F104ADEFB4E0E1EDF4E0A7
:1007900080E0D81391C01092D0048091D004CC0F87
:1007A000C82BC093D0048091CF04813009F088C059
:1007B0001092CF040E94BA016B017C018091D00499
:1007C0008093BB008091F7049091F804A091F90404
:1007D000B091FA04892B8A2B8B2BA1F00E94BA01CD
:1007E0000091F7041091F8042091F9043091FA0473
:1007F0006C197D098E099F09061717072807390705
:1008000008F442C08091BC0083FDD8CF85EC809372
:10081000BC000E94BA016B017C018091F50482301A
:1008200009F450C08091F3048F3F09F46FC08091A8
:10083000F304803209F46CC08091F304803309F42E
:1008400069C084E026C08091F7049091F804A091DB
:10085000F904B091FA04892B8A2B8B2B09F484CFED
:100860000E94BA018090F7049090F804A090F904D7
:10087000B090FA046C197D098E099F0986169706B7
:10088000A806B90608F070CF8091F6040E947B0399
:1008900085E01092FC0410921E051092FB04DF917B
:1008A000CF911F910F91FF90EF90DF90CF90BF906D
:1008B000AF909F908F9008959D9191938F5F69CF96
:1008C00085EEA5CF8091F7049091F804A091F904EA
:1008D000B091FA04892B8A2B8B2B09F49ECF0E94AE
:1008E000BA010091F7041091F8042091F9043091B5
:1008F000FA046C197D098E099F0906171707280746
:10090000390708F08ACFC0CF81E0C3CF80E0C1CFE4
:1009100082E0BFCF83E0BDCFCF92DF92EF92FF9214
:100920000F931F93CF93DF93D82FC62F613208F018
:1009300098C00E94BA016B017C018091F50481117D
:100940006BC081E08093F5048093F4049FEF909353
:10095000F3041092F2049C0F9093F1048093D0045E
:100960008091D004DD0FD82BD093D0048091CF0498
:10097000813009F078C01092CF040E94BA016B0157
:100980007C018091D0048093BB008091F70490910A
:10099000F804A091F904B091FA04892B8A2B8B2BCF
:1009A000A1F00E94BA010091F7041091F80420917F
:1009B000F9043091FA046C197D098E099F09061714
:1009C00017072807390708F448C08091BC0083FD49
:1009D000D8CF85EC8093BC000E94BA016B017C01EA
:1009E0008091F504813009F440C08091F2048C17A5
:1009F00010F4C091F204E1EDF4E0AFEAB4E080E07D
:100A00008C1355C08C2FDF91CF911F910F91FF90C8
:100A1000EF90DF90CF9008958091F7049091F804C3
:100A2000A091F904B091FA04892B8A2B8B2B09F43D
:100A300084CF0E94BA010091F7041091F80420912C
:100A4000F9043091FA046C197D098E099F09061783
:100A500017072807390708F070CF8091F6040E9425
:100A60007B03C0E0CFCF85EEB5CF8091F7049091A6
:100A7000F804A091F904B091FA04892B8A2B8B2BEE
:100A800009F4AECF0E94BA010091F7041091F80466
:100A90002091F9043091FA046C197D098E099F099F
:100AA000061717072807390708F09ACFD6CF919174
:100AB0009D938F5FA5CF0895E091AE048091AD0422
:100AC000E81730F4F0E0E155FB4F808190E00895A5
:100AD0008FEF9FEF08959091AE048091AD042FEFBA
:100AE0003FEF981748F4E92FF0E0E155FB4F2081E4
:100AF00030E09F5F9093AE04C90108958091AD04EA
:100B00009091AE04891B990B0895CF92DF92EF92DA
:100B1000FF920F931F93CF93DF937C01CB018A0148
:100B20002091FB04222389F0EB016B01C40ED51E3A
:100B3000CC15DD0569F06991D701ED91FC9101902B
:100B4000F081E02DC7010995F3CF642F0E94360391
:100B5000C801DF91CF911F910F91FF90EF90DF902F
:100B6000CF900895CF93DF931F92CDB7DEB76983FF
:100B70002091FB042223F9F020911E05203258F029
:100B800021E030E0FC013383228390E080E00F908D
:100B9000DF91CF9108958091FC04E82FF0E0E350BD
:100BA000FB4F998190838F5F8093FC0480931E0597
:100BB00081E090E0ECCF61E0CE0101960E94360327
:100BC000F7CFFC01248131E03093FB0420931D0515
:100BD0001092FC0410921E058385682B88EC95E02A
:100BE0000E94B20581E00C949C0390E080E008959F
:100BF000CF93C82F682F8FE195E00E94C9028C2FF8
:100C0000CC0F990BCF9108958F929F92AF92BF9284
:100C1000CF92DF92EF92FF92CF93A091D505B09142
:100C2000D6059091D40521E02093FB0490931D05F7
:100C30001092FC0410921E05ED91FC911197019009
:100C4000F081E02D682FCD01099581E00E949C0381
:100C5000CAE0882361F086EE93E0CF91FF90EF9099
:100C6000DF90CF90BF90AF909F908F9008956AE0F3
:100C700070E080E090E00E94DF0163E08091D405A5
:100C80000E948C041092AE048093AD04C15019F3FD
:100C9000833069F78091D5059091D605DC01ED91FF
:100CA000FC910284F385E02D0995F82E8091D505FD
:100CB0009091D605DC01ED91FC910284F385E02D45
:100CC0000995C82F8091D5059091D605DC01ED914D
:100CD000FC910284F385E02D099520E03F2D2C2B1B
:100CE000A90170E060E0762F652F542F4427482B30
:100CF00087E190E0C12CE0E8DE2EE8E9EE2EF12C51
:100D00004A015B01082E04C0B694A7949794879477
:100D10000A94D2F780FE04C04C255D256E257F2500
:100D2000F694E794D794C79401978730910541F7DB
:100D3000C9018C7F442309F490CF87EE93E08DCFD7
:100D40000F931F93CF938C01C62F0E94E1056C2F48
:100D50006460C8010E94E1056C2F6B7FC8010E948E
:100D6000E10583EC90E00197F1F7CF911F910F918E
:100D700008950F931F93CF93DF938C01D62FC42F29
:100D8000607F642B0E94A00680E1D89FB0011124EF
:100D90006C2BC801DF91CF911F910F910C94A0068D
:100DA000CF93DF93CDB7DEB728970FB6F894DEBFA9
:100DB0000FBECDBF98E0E6E0F1E0DE0111960190B4
:100DC0000D929A95E1F79091C405961710F46FEF84
:100DD000690F262F30E0220F331F41E050E04C0F07
:100DE0005D1F240F351FF9016081680F606840E0C6
:100DF0008CEB95E028960FB6F894DEBF0FBECDBF02
:100E0000DF91CF910C94B90641E00E94B90681E0D0
:100E100090E00895CF93DF93EC018881998100974A
:100E200011F00E94131A198218821D821C821B82E3
:100E30001A82DF91CF910895FC0180819181009702
:100E400011F00C94131A0895FB0101900020E9F7AA
:100E50003197AF01461B570BDC01ED91FC910280ED
:100E6000F381E02D09948F929F92AF92BF920F93DE
:100E70001F93CF93DF93CDB7DEB7A1970FB6F8944A
:100E8000DEBF0FBECDBF19A2423008F44AE08E018A
:100E90000F5D1F4F842E912CB12CA12CA501940124
:100EA0000E94391EE62FB901CA01EA3004F5E05D5F
:100EB000D801EE938D01232B242B252B79F790E07D
:100EC00080E0109729F0BD018FE195E00E94240792
:100ED000A1960FB6F894DEBF0FBECDBFDF91CF91C4
:100EE0001F910F91BF90AF909F908F900895E95CF4
:100EF000DFCFCF93DF93BC018FE195E00E94240701
:100F0000EC016EE371E08FE195E00E9424078C0F05
:100F10009D1FDF91CF910895CF93DF93D82FC62FD8
:100F2000662371F061E084E00E945B0181E491E05E
:100F30000E9479076AE070E080E090E00E94DF01A3
:100F400061E08D2F0E945B0162E370E080E090E041
:100F50000E94DF0160E08D2F0E945B016AEF70E06C
:100F600080E090E00E94DF01CC2331F060E084E07B
:100F7000DF91CF910C945B01DF91CF91089561E0F7
:100F800080E190E00C948C07CF93DF93C0E1D0E038
:100F900060E081E190E00E948C072197C9F761E051
:100FA00081E190E0DF91CF910C948C0760E081E1CA
:100FB00090E00E948C0761E085E090E00C948C0743
:100FC000CF93DF93C0E1D0E060E085E090E00E9445
:100FD0008C072197C9F761E085E090E0DF91CF9120
:100FE0000C948C07CF93DF93BC01990F880B990B5E
:100FF0004AE00E943307EC016EE371E08FE195E077
:101000000E9424078C0F9D1FDF91CF9108950C94AF
:101010002407CF93DF93EB01BC018FE195E00E94A1
:10102000070887E491E0CD2B11F48BE491E0DF9188
:10103000CF910C9479070F931F93CF93DF93EC011B
:1010400088819981009759F02A813B8126173707BB
:1010500030F081E0DF91CF911F910F9108958B01C6
:101060006F5F7F4F0E94751E009759F099838883A8
:101070001B830A832C813D81232B59F7FC011082AD
:10108000E8CF80E0E7CFEF92FF920F931F93CF93CB
:10109000DF936115710541F480E0DF91CF911F91DD
:1010A0000F91FF90EF90089541155105B1F07B012C
:1010B000EC010C811D81040F151FB8010E941B0853
:1010C000882351F3288139818C819D81B701820F5A
:1010D000931F0E94441F1D830C8381E0DECFCF93BA
:1010E000DF93EC01FB0101900020E9F73197AF019C
:1010F000461B570B0E944308811103C0CE010E947A
:101100000A07CE01DF91CF910895CF93DF93EC01D1
:10111000FB0144815581608171810E9443088111E6
:1011200003C0CE010E940A07CE01DF91CF9108953E
:10113000EF92FF920F931F93CF93DF93EC017B010C
:101140008A01BA010E941B0881110BC0CE010E94C6
:101150000A07CE01DF91CF911F910F91FF90EF9081
:1011600008951D830C83B701888199810E94441FD3
:10117000F0CFFB0101900020E9F73197AF01461B4A
:10118000570B0C9498080F931F93CF93DF93CDB711
:10119000DEB762970FB6F894DEBF0FBECDBF8C01ED
:1011A000CB01F801118210821382128215821482FF
:1011B0004AE0BE016F5F7F4F0E948C17BE016F5FD8
:1011C0007F4FC8010E94B90862960FB6F894DEBF3F
:1011D0000FBECDBFDF91CF911F910F910895CF9397
:1011E000DF93EC01FB018617970749F0608171815D
:1011F0006115710541F0448155810E949808CE0126
:10120000DF91CF9108950E940A07F9CFFC01118266
:1012100010821382128215821482FB010190002039
:10122000E9F73197AF01461B570B0C949808CF9202
:10123000DF92EF92FF920F931F93CF93DF93CDB77F
:10124000DEB768970FB6F894DEBF0FBECDBF8C0136
:10125000C0907D04D0907E04E0907F04F0908004E4
:101260000E94110220ECC20E27E2D21E29E0E21EEB
:10127000F11CA7019601261B370B480B590BCA011D
:10128000B90128EE33E040E050E00E94391EC90168
:101290006CE370E00E94251E6B017C01BC01CE0155
:1012A00043960E94C30860E471E03AE0E316F1045B
:1012B00014F46EE471E0CE010D960E940609B601A9
:1012C000CE0101960E94C30818861F821A861986CD
:1012D0001C861B86BE016F5F7F4FCE0107960E9462
:1012E000EF0860E571E0CE0107960E946F08BE012D
:1012F000635F7F4F0E948508BE016D5E7F4F0E9435
:101300008508F801118210821382128215821482DC
:10131000BC01C8010E94EF08CE0107960E941C077D
:10132000CE0101960E941C07CE010D960E941C075B
:10133000CE0143960E941C07C80168960FB6F89428
:10134000DEBF0FBECDBFDF91CF911F910F91FF90F8
:10135000EF90DF90CF900895CF93DF93EC0160E49E
:1013600071E00E940609E0918304E93098F4F0E00E
:10137000E454F64F0C945B1EC509CE09D109D4097B
:10138000D709DA09DD09E009E3096DE671E0CE016C
:101390000E94B908CE01DF91CF91089562E571E016
:1013A000F6CF6DE571E0F3CF63E671E0F0CF64E76F
:1013B00071E0EDCF61E871E0EACF62E971E0E7CF7B
:1013C0006EE971E0E4CF6FEA71E0E1CFEF92FF9256
:1013D0000F931F93CF93DF93CDB7DEB7A1970FB6CF
:1013E000F894DEBF0FBECDBF7C01CB01BA01F7017F
:1013F00011821082138212821582148242E0420FFF
:101400008E010F5F1F4F0E946E17009789F0BC017D
:10141000C7010E94B908A1960FB6F894DEBF0FBEAF
:10142000CDBFDF91CF911F910F91FF90EF90089565
:10143000C7010E940A07EFCF85ED8093BC00809121
:10144000F7049091F804A091F904B091FA0407967A
:10145000A11DB11D23E0B695A795979587952A956F
:10146000D1F72091BC0024FD03C01092F50408952B
:101470004091F7045091F8046091F9047091FA04D6
:10148000452B462B472B69F30097A105B10541F089
:101490002AE22A95F1F700C00197A109B109E1CF2D
:1014A0008091F6040C947B031F920F920FB60F925B
:1014B00011242F933F938F939F93AF93BF9380916A
:1014C000A5049091A604A091A704B091A80430911E
:1014D000A40423E0230F2D3758F50196A11DB11D5B
:1014E0002093A4048093A5049093A604A093A7043A
:1014F000B093A8048091A9049091AA04A091AB0490
:10150000B091AC040196A11DB11D8093A9049093E4
:10151000AA04A093AB04B093AC04BF91AF919F9188
:101520008F913F912F910F900FBE0F901F901895A4
:1015300026E8230F0296A11DB11DD2CF1F920F9254
:101540000FB60F9211242F933F934F935F936F9396
:101550007F938F939F93AF93BF93EF93FF938FE10D
:1015600095E00E94A702FF91EF91BF91AF919F91EB
:101570008F917F916F915F914F913F912F910F903C
:101580000FBE0F901F9018951F920F920FB60F92DB
:1015900011242F938F939F93EF93FF93E0912F0547
:1015A000F09130058081E0913505F091360582FD9E
:1015B0001BC09081809138058F5F8F732091390512
:1015C000821741F0E0913805F0E0E15EFA4F958F27
:1015D00080933805FF91EF919F918F912F910F90FC
:1015E0000FBE0F901F9018958081F4CF1F920F921D
:1015F0000FB60F9211242F933F934F935F936F93E6
:101600007F938F939F93AF93BF93EF93FF938091BB
:10161000B900887F803609F44AC0F0F5883209F4B1
:10162000A7C018F5803109F49BC0B8F4882309F4E9
:10163000F9C0883009F494C0FF91EF91BF91AF9148
:101640009F918F917F916F915F914F913F912F91DA
:101650000F900FBE0F901F901895883109F488C025
:10166000803251F78093F30414C0803409F49DC094
:1016700040F48033B9F38833F9F68093F30485ECB2
:10168000B0C0803509F485C0883509F496C0883427
:1016900099F60E941C0AD0CF883909F48CC038F51D
:1016A000883729F050F4883611F0803729F683E026
:1016B0008093F5041092670457C0883809F47BC002
:1016C000803919F0803809F0B7CF809167048032F3
:1016D00008F071C0E091670481E08E0F8093670489
:1016E0008091BB00F0E0E95BFB4F80833DC0803B15
:1016F00039F0E0F4803A09F479C0883A09F09CCFD7
:1017000084E08093F5041092460410924504E09121
:101710006804F091690409958091450481110FC016
:1017200081E0809345041092250409C0803C09F4AF
:10173000A6CF883C09F4A3CF883B09F07DCFE09188
:10174000460481E08E0F80934604F0E0EB5DFB4F92
:1017500080818093BB00909146048091450429C00C
:101760008091D0048093BB0085EC8093BC0064CF53
:101770009091F2048091F104981758F5E091F204E9
:1017800081E08E0F8093F204F0E0EF52FB4F8081F6
:10179000E9CFE091F20481E08E0F8093F204809112
:1017A000BB00F0E0EF52FB4F80839091F2048091F8
:1017B000F1049817C8F285E8D8CFE091F20481E0EF
:1017C0008E0F8093F2048091BB00F0E0EF52FB4F4C
:1017D00080838091F40481115CCF81E08093CF04F9
:1017E00084EA8093BC001092F50426CF85EC8093A8
:1017F000BC001092F50480916704803230F4E091CF
:101800006704F0E0E95BFB4F10826091670470E0D1
:10181000E0916A04F0916B0487E494E009951092DA
:1018200067040ACF1092F30434CFEFE1F5E013829E
:10183000128288EE93E0A0E0B0E084839583A683D3
:10184000B78322E131E03183208325EC30E0358716
:10185000248724EC30E03787268720EC30E0318B7A
:10186000208B21EC30E0338B228B22EC30E0358B67
:10187000248B26EC30E0378B268B118E128E138E44
:10188000148EE8ECF5E01382128284839583A6839C
:10189000B78384E291E091838083A4EDB5E080E496
:1018A0008C931296FC93EE931197ECEBF5E0138278
:1018B000128286E391E09183808387E2848380E1D2
:1018C000818784E0828713860895CF93DF93CDB715
:1018D000DEB7A4970FB6F894DEBF0FBECDBF7894E5
:1018E00084B5826084BD84B5816084BD85B5826025
:1018F00085BD85B5816085BD80916E0081608093D6
:101900006E0010928100809181008260809381003E
:10191000809181008160809381008091800081604E
:10192000809380008091B10084608093B1008091A9
:10193000B00081608093B00080917A0084608093D1
:101940007A0080917A00826080937A0080917A0098
:10195000816080937A0080917A00806880937A0019
:101960001092C100E0912F05F091300582E0808354
:10197000E0912B05F0912C051082E0912D05F0915E
:101980002E0580E1808310923705E0913305F091B8
:10199000340586E08083E0913105F0913205808145
:1019A00080618083E0913105F0913205808188600B
:1019B0008083E0913105F0913205808180688083D9
:1019C000E0913105F091320580818F7D808370E058
:1019D00060E088EF95E00E94B1171092AE0410927B
:1019E000AD041092FC0410921E050E945D038DE16F
:1019F00092E090936904809368048EE192E0909362
:101A00006B0480936A046CE271E080E090E00E94D5
:101A1000DF018091D5059091D6052091D40531E064
:101A20003093FB0420931D05DC01ED91FC910190A6
:101A3000F081E02D67EE099581E00E949C0361E052
:101A40008091D4050E948C041092AE048093AD0462
:101A50008091D5059091D605DC01ED91FC91028431
:101A6000F385E02D0995182F682F607470E08EEBD8
:101A700091E00E940908612F647070E08FEC91E0A2
:101A80000E9409081270612F70E080EE91E00E94C0
:101A9000090861E081E10E94890161E085E00E941E
:101AA000890161E080E10E94890161E08EE00E948D
:101AB000890161E084E00E94890160E083E00E9486
:101AC000890160E086E00E94890160E087E00E9471
:101AD000890160E088E00E94890160E089E00E945D
:101AE000890160E08BE00E94890164E670E080E09B
:101AF00090E00E94DF0189E00E94320121E0892B01
:101B000009F420E02093960464E670E080E090E021
:101B10000E94DF011092AE041092AD041092FC04FA
:101B200010921E050E945D038DE192E0909369047E
:101B3000809368048EE192E090936B0480936A0432
:101B40001092C1058091C605823018F098E09093FC
:101B5000C1058093C40562E370E080E090E00E94DC
:101B6000DF016091C7058CEB95E00E94E10568EE0E
:101B700073E080E090E00E94DF0160E38CEB95E091
:101B80000E94A0060BE416E4C8010197F1F760E398
:101B90008CEB95E00E94A006C8010197F1F760E385
:101BA0008CEB95E00E94A00683E592E00197F1F7A7
:101BB00060E28CEB95E00E94A0066091C105606236
:101BC00040E08CEB95E00E94B90684E08093C2056A
:101BD00040E06CE08CEB95E00E94B90640E061E0EB
:101BE0008CEB95E00E94B9060BE31FE1C801019759
:101BF000F1F782E08093C30540E066E08CEB95E06E
:101C00000E94B90640E062E08CEB95E00E94B906C4
:101C1000C8010197F1F765EF71E08CEB95E00E9448
:101C2000070885EF91E00E9479078BE00E9432015E
:101C300021E030E0892B11F030E020E0C9010E9462
:101C4000F20789E00E94320121E0892B09F420E0AB
:101C50002093960461E080E00E94D0068BE00E9411
:101C60003201892B09F0CBC266E072E08CEB95E083
:101C70000E94070886E08093830485E080936C04CB
:101C800062E080E00E94D00680919604882309F4E7
:101C9000BDC261E272E08CEB95E00E9407080E94F1
:101CA000E00786E292E00E94790768EE73E080E048
:101CB00090E00E94DF0140E061E08CEB95E00E9443
:101CC000B9068BE39FE10197F1F72224239492E078
:101CD000392E83EF0E9404069C01265E3340BC012E
:101CE00090E080E02230310508F09BC20E94901BFA
:101CF0006093A0047093A1048093A2049093A30422
:101D000085EF0E9404069C01265E3340BC0190E0F2
:101D100080E02230310508F093C20E94901B6B01D5
:101D20007C01C0929C04D0929D04E0929E04F092AB
:101D30009F042091A0043091A1044091A2045091ED
:101D4000A304298F3A8F4B8F5C8F20E030E040E274
:101D500051E4698D7A8D8B8D9C8D0E94C51D18165E
:101D60000CF0D1C220E030E040E752E4698D7A8D7A
:101D70008B8D9C8D0E948B1B87FFC5C220E030E0BD
:101D800040EA51E4C701B6010E94C51D18160CF0C7
:101D9000BAC220E030E040EA52E4C701B6010E9436
:101DA0008B1B87FFB0C226E636E646EE5FE3698D01
:101DB0007A8D8B8D9C8D0E94F11B20E030E040E0FD
:101DC00052E40E94E71C4B015C0120E030E048E84F
:101DD00052E40E94E61C2AE939E949E95FE30E94DE
:101DE000F11B2B013C0120E030E044E752E4C50147
:101DF000B4010E94E71C9B01AC01C301B2010E9427
:101E0000E71C2B013C0122E133E840EC5DE3C70114
:101E1000B6010E94F11B9B01AC01C301B2010E94FB
:101E2000E71C20E030E040E05FE30E94F11B2B0163
:101E30003C0120E030E04EE952E40E94C51D181636
:101E40000CF00FC1A5019401C501B4010E94F11B62
:101E50006D8F7E8F8F8F98A3A7019601C701B60162
:101E60000E94F11B69A37AA38BA39CA321E133E217
:101E700043E050E4C501B4010E94F11B29E134E8BC
:101E800049E252E40E94E61C2B013C0126E13BE4BE
:101E900042E251E4C701B6010E94F11B9B01AC0173
:101EA000C301B2010E94E71C2B013C0128E436E289
:101EB00046E65EEBC501B4010E94F11BA701960145
:101EC0000E94F11B9B01AC01C301B2010E94E71CFF
:101ED0002B013C0120EE3FE040EE5BEB6D8D7E8DF3
:101EE0008F8D98A10E94F11B9B01AC01C301B2012F
:101EF0000E94E71C2B013C0128EF37E840E65DEB30
:101F000069A17AA18BA19CA10E94F11B9B01AC014C
:101F1000C301B2010E94E71C2B013C012CEA3DE009
:101F200041EA5AE36D8D7E8D8F8D98A10E94F11B41
:101F3000A70196010E94F11B9B01AC01C301B201F4
:101F40000E94E71C2B013C0128EC3FE84FE55AE3D7
:101F5000C501B4010E94F11B29A13AA14BA15CA1CA
:101F60000E94F11B9B01AC01C301B2010E94E71C5E
:101F70002B013C0121EF3BE845E056EB6D8D7E8D5A
:101F80008F8D98A10E94F11B29A13AA14BA15CA1C0
:101F90000E94F11B9B01AC01C301B2010E94E71C2E
:101FA0002B013C0120E030E040E551E4C701B601DF
:101FB0000E948B1B87FF5CC120E030E040EA52E4C6
:101FC000C501B4010E94C51D87FD52C120E030E06B
:101FD00040EE52E4C501B4010E948B1B18160CF4AC
:101FE0008BC6A701960160E070E080E591E40E9455
:101FF000E61C20E030E040E85EE30E94F11B6B014C
:102000007C0120E030E04EEB52E4C501B4010E94B7
:10201000E61C4B015C0120E030E0A9010E94C51DD7
:1020200018160CF01CC1A501940160E070E088E86E
:1020300091E40E94E61C2EE33DEE40E75DE30E9442
:10204000F11B0E94D01D9B01AC01C701B6010E948B
:10205000F11B9B01AC01C301B2010E94E61C2B01E4
:102060003C0120E030E040E052E4C301B2010E94B4
:10207000E61C26E636E646EE5FE30E94531D6B0142
:102080007C01C0929804D0929904E0929A04F09254
:102090009B0420E030E040E251E40E94C51D87FD32
:1020A00032C120E030E04CE852E4C701B6010E94A2
:1020B0008B1B18160CF427C1109297048BE00E941A
:1020C00032018C0180919604882309F466C388E06C
:1020D0000E9432014C0187E00E9432016C0186E0CF
:1020E0000E9432017C0183E00E9432015C0161E0C8
:1020F00070E0892811F070E060E0072E000C880B7A
:10210000990B0E94921B20E030E040E05FE30E94C8
:10211000F11B2B013C0161E070E0CD2811F070E073
:1021200060E0072E000C880B990B0E94921B9B010C
:10213000AC01C301B2010E94E71C2B013C0161E02C
:1021400070E0EF2811F070E060E0660F771F072E57
:10215000000C880B990B0E94921B9B01AC01C301E0
:10216000B2010E94E71C6B017C01AB2821F4F7FA55
:10217000F094F7F8F09426E636E64EE951E4C7010C
:10218000B6010E94E71C4B015C012AE939E941EAEA
:1021900051E4C701B6010E94E71C6B017C017090FD
:1021A000970480917504811108C060E471E08FE6A6
:1021B00094E00E9406092092750410926E04109219
:1021C0006D0460E080E00E94D006E0916C0477200E
:1021D00031F0E53009F466C287E080938304E8308B
:1021E00008F0A7C0F0E0E950FF4E0C945B1E86118A
:1021F00003127212C412171352136D13AC1364E15D
:1022000072E08CEB95E00E9407083ACD6DE272E037
:102210008CEB95E00E9407080E94C40782E392E0DD
:1022200042CD0E94901B22E538EB4FE25BE30E9417
:10223000F11B26E636E64BE352E40E94E61C58CD3D
:102240000E94901B20E030E04AEF5AE30E94F11B0D
:1022500020E030E040EC50E40E94E61C60CD20E03D
:1022600030E048E851E4C501B4010E94E71CE3CE28
:1022700020E030E04AEA52E4C701B6010E94C51DE1
:1022800018160CF0EECE20E030E040EA52E4C50132
:10229000B4010E94C51D87FDE4CE20E030E04EEA87
:1022A00052E4C501B4010E948B1B18160CF4D9CE60
:1022B00020E030E04AEA52E4C701B6010E94E61C81
:1022C0002DEC3CEC4CEC5DE30E94F11B6B017C01BE
:1022D000A501940160E070E08EEA92E40E94E61CA1
:1022E0002DEC3CEC4CE45EE30E94F11B9B01AC0145
:1022F000C701B6010E94F11B9B01AC01C301B201F1
:102300000E94E71CACCE20929704D8CE8CEC92E0D1
:102310000E947907012B39F110926E0410926D041E
:1023200069E372E08FE694E00E94B90834E03093EC
:102330006C048091730490917404892B81F0E09176
:102340006F04F09170048081882349F060E08091EF
:102350006D040E94D0068FE694E00E944D02C12CCD
:10236000D12C7601D6C3A5019401698D7A8D8B8D10
:102370009C8D0E948B1B87FF11C010926E041092DF
:102380006D046AE472E08FE694E00E94B90820923E
:102390006C041092820410928104CBCFCE0101967E
:1023A0000E9417096BE572E0CE0107960E940609AC
:1023B000BE016F5F7F4FCE0107960E948508BC016A
:1023C0008FE694E00E94EF08CE0107960E941C075A
:1023D000CE0101960E941C070E94110200917D040B
:1023E00010917E0420917F0430918004601B710B5A
:1023F000820B930B603C77428940910508F499CF9A
:102400000E94D60759C088E692E00E947907012B06
:1024100009F082CFA5019401698D7A8D8B8D9C8DF9
:102420000E948B1B87FF53C080918104909182048E
:102430008C010F5F1F4F1093820400938104049658
:1024400090936E0480936D0464E872E08FE694E0EC
:102450000E94B908073011050CF46BCF10926E047E
:1024600010926D046CE074E08FE694E00E94B9086D
:1024700030926C0400E110E060E085E090E00E94A2
:102480008C0701501109C1F760E081E190E00E94E2
:102490008C0760E081E190E00E948C0760E081E1C0
:1024A00090E00E948C0761E081E190E00E948C073F
:1024B00086E892E00E9479070E94110260937D04F1
:1024C00070937E0480937F049093800432CF85E9DB
:1024D00092E00E9479071092820410928104109277
:1024E0006C0427CF85E792E00E947907012B09F061
:1024F00013CFA7019601698D7A8D8B8D9C8D0E94DB
:10250000C51D181674F410926E0410926D0461EAE1
:1025100072E08FE694E00E94B90853E050936C0497
:1025200038CFCE0101960E94170962EB72E0CE010E
:1025300007960E940609BE016F5F7F4FCE01079686
:102540000E948508BC018FE694E00E94EF08CE014E
:1025500007960E941C07CE0101960E941C070E944C
:10256000110200917D0410917E0420917F0430912E
:102570008004601B710B820B930B603C7742894097
:10258000910508F4D6CE3CCF8FEB92E00E947907FC
:10259000012B09F0C1CEA7019601698D7A8D8B8D33
:1025A0009C8D0E94C51D1816BCF5809181049091E8
:1025B00082048C010F5F1F4F1093820400938104EB
:1025C000049690936E0480936D0464E872E08FE645
:1025D00094E00E94B908073011050CF4AACE1092BD
:1025E0006E0410926D046CE074E08FE694E00E943B
:1025F000B90810926C040E94110260937D047093DC
:102600007E0480937F04909380040E94E0078CED09
:1026100092E00E9479078DCE85E992E00E947907C9
:10262000109282041092810430926C0482CE8CEE5F
:1026300092E00E94790780918104909182047C014C
:10264000BFEFEB1AFB0AF0928204E0928104012BA7
:1026500009F43DCF049690936E0480936D0464E872
:1026600072E08FE694E00E94B908E7E0EE16F1040C
:102670000CF45FCE10926E0410926D0464E073E06F
:102680008FE694E00E94B9080E94E0070E94BF070D
:102690001092820410928104F5E0F0936C0489EFAB
:1026A00092E0B7CF64E073E08FE694E00E94B9084F
:1026B00089EF92E00E947907012B09F03ACE10923F
:1026C0006E0410926D0465E173E08FE694E00E9461
:1026D000B90886E080936C045CCE86E293E00E94A9
:1026E000790780918104909182047C012FEFE21A96
:1026F000F20AF0928204E0928104012B09F504961B
:1027000090936E0480936D0464E872E08FE694E029
:102710000E94B90837E0E316F1040CF40ACE1092D7
:102720006E0410926D046DE373E08FE694E00E94F6
:10273000B9080E94BF078EE493E00E947907CFCECC
:1027400085E992E00E947907109282041092810438
:1027500045E040936C04EDCD8AE693E00E94790752
:1027600000E110E060E085E090E00E948C070150FD
:102770001109C1F760E081E190E00E948C0761E0FF
:1027800081E190E00E948C077110D3CD6AE873E07C
:102790008FE694E00E94B908A2CE6BE973E08FE166
:1027A00095E00E9407088091960490E00E94F2074D
:1027B00088E00E9432015C0187E00E9432016C01D6
:1027C00086E00E9432017C0161E070E0AB2811F0EC
:1027D00070E060E0072E000C880B990B0E94921BA2
:1027E00020E030E040E05FE30E94F11B4B015C0120
:1027F00061E070E0CD2811F070E060E0072E000C81
:10280000880B990B0E94921B9B01AC01C501B4017E
:102810000E94E71C4B015C01EF2821F4B7FAB09449
:10282000B7F8B0942AE939E949ED51E4C501B4019A
:102830000E94E71C2B013C014092920450929304A9
:10284000609294047092950426E636E646ED51E4D3
:10285000C501B4010E94E71C698F7A8F8B8F9C8F12
:10286000509197045D8F8090980490909904A09067
:102870009A04B0909B04C0909C04D0909D04E0907A
:102880009E04F0909F04552341F0809183048D7F36
:10289000843019F088E080938304E0918304E93068
:1028A00008F0FFC0F0E0E95AFB4E0C945B1E601488
:1028B000C6141C15B515F615001619162016421665
:1028C0008DE691E00E947907012B21F084E080934E
:1028D0008304E7C0A5019401C301B2010E948B1BD0
:1028E00087FF11C020E030E044E052E4C701B601A8
:1028F0000E94C51D18163CF4209283041092820495
:1029000010928104CEC010928304C0907D04D090B8
:102910007E04E0907F04F09080040E941102A0ECFD
:10292000CA0EA7E2DA1EA9E0EA1EF11CA701960171
:10293000261B370B480B590BCA01B90128EE33E0AF
:1029400040E050E00E94391ECA01B9014AE00E94ED
:1029500033076EE371E08FE195E00E9424070E9447
:10296000110200917D0410917E0420917F0430912A
:102970008004601B710B820B930B603C7742894093
:10298000910508F48EC00E94D60740C081EB93E009
:102990000E947907012B09F099CFA5019401C30189
:1029A000B2010E948B1B87FF3CC020E030E044E076
:1029B00052E4C701B6010E94C51D181694F5809116
:1029C0008104909182040196909382048093810403
:1029D00007970CF466C03092830400E110E060E0D9
:1029E00081E190E00E948C0701501109C1F704E0D9
:1029F00010E060E085E090E00E948C070150110932
:102A0000C1F761E085E090E00E948C070E9411020E
:102A100060937D0470937E0480937F049093800480
:102A200040C085E992E00E947907109282041092DA
:102A300081041092830435C08DE591E00E947907EE
:102A4000012B09F043CFA5019401698D7A8D8B8DFF
:102A50009C8D0E94C51D181654F020E030E040EF18
:102A600051E4C701B6010E948B1B87FF04C043E0FD
:102A70004093830443CF309283040E94110200915B
:102A80007D0410917E0420917F0430918004601BAE
:102A9000710B820B930B603C77428940910508F0E3
:102AA00072CF2DEC3CEC4CE45EE3609192047091AB
:102AB000930480919404909195040E94E61C6B010C
:102AC0007C0161E08BE00E94D00640919804509117
:102AD000990460919A0470919B0421E0CE010196C3
:102AE0000E94E60967E074E0CE0107960E9406099D
:102AF000BE016F5F7F4FCE0107960E9485080E943E
:102B00004D02CE0107960E941C07CE0101960E943D
:102B10001C0780918A04811106C084E894E00E9419
:102B2000AC0920928A04CE0143960E94AC09209100
:102B30008804309189048F89988D2817390709F006
:102B4000F4C080918404909185046B897C890097FE
:102B500009F4DEC06115710509F0B2C0232B09F438
:102B600017C1FC01808190E0DEC084EC93E00E94FC
:102B70007907012B09F0AACEA5019401698D7A8D00
:102B80008B8D9C8D0E94C51D181654F020E030E0FE
:102B900040EF51E4C701B6010E948B1B87FF1BC0A9
:102BA0008091810490918204019690938204809395
:102BB000810407970CF475CF109283040E941102D0
:102BC00060937D0470937E0480937F0490938004CF
:102BD0000E94C40766CF85E992E00E9479071092AF
:102BE000820410928104309283045BCF84E791E0E9
:102BF0000E947907109282041092810485E067CECA
:102C000088ED93E00E94790780918104909182047D
:102C100001969093820480938104012B09F401CFE3
:102C200007970CF43ECF0E94C4070E94BF0786E0BE
:102C30004ECE012B09F035CF87E0809383045ECE22
:102C400080EF93E00E947907809181049091820443
:102C500001969093820480938104012B51F407978D
:102C60000CF41FCF0E94BF078EE493E00E94790707
:102C7000E0CE85E992E00E947907109282041092DA
:102C80008104D5CF0EE110E060E081E190E00E9488
:102C90008C0701501109C1F760E085E090E00E94C7
:102CA0008C0760E085E090E00E948C0761E085E0A1
:102CB00090E00E948C079D8D992309F4BACEF1CE45
:102CC0000E943B1F30C00E94131A89819A81909301
:102CD0008504809384048B819C81909387048093E6
:102CE00086048D819E8190938904809388041A8242
:102CF00019821C821B8246C020E030E04AEA52E47E
:102D0000C701B6010E94C51D18160CF0AAC9C5CA94
:102D100061157105E9F1232BD9F1DB018C9190E06C
:102D2000919581959109892B99F160E080E00E944D
:102D3000D00669E074E08CEB95E00E940708CE01B4
:102D400001960E94AC0980918404909185040097BB
:102D500009F4BBCF69817A816115710509F4B3CF9C
:102D600040918604509187042D813E81421753077C
:102D700008F4A9CF0E94441F8D819E8190938904FD
:102D8000809388041E821D82CE0101960E941C073A
:102D900060E080E00E94D006CE0101960E94AC095E
:102DA000CE0101960E944D02CE0101960E941C07A1
:102DB000809183048D7F81F460E08BE00E94D006D7
:102DC000CE0101960E941709CE0101960E944D0284
:102DD000CE0101960E941C0761E080E00E94D006AF
:102DE00040919C0450919D0460919E0470919F04B9
:102DF00020E0CE0101960E94E6094091A004509186
:102E0000A1046091A2047091A30421E0CE01079671
:102E10000E94E60968E873E0CE010D960E9406095B
:102E2000BE01695F7F4FCE010D960E9485086DE15E
:102E300074E00E946F08BE016F5F7F4F0E9485089B
:102E400060E274E00E946F080E944D02CE010D9670
:102E50000E941C07CE0107960E941C07CE01019616
:102E60000E941C0762E087E00E94D00621E0B701C3
:102E7000A601CE0101960E94E60962E274E0CE014D
:102E800007960E940609BE016F5F7F4FCE0107962D
:102E90000E9485080E944D02CE0107960E941C07E1
:102EA000CE0101960E941C0768EE73E080E090E07E
:102EB0000E94DF01CE0143960E941C0720E030E013
:102EC000232B11F40C94690E0E949302882311F4B1
:102ED0000C94670E0E9400000C94670EEF920F9303
:102EE0001F93CF93DF93E80134E047FD34E1042ED4
:102EF000000C550B57FF03C0519541955109E32E26
:102F0000022F242FAE010E941818CE01DF91CF911D
:102F10001F910F91EF900895BB274A3031F4992308
:102F200022F4BDE2909581959F4F0C949817BB2792
:102F3000FB015527AA27880F991FAA1FA41710F075
:102F4000A41B83955051B9F7A05DAA3308F0A95D81
:102F5000A193009779F7B111B1931192CB010C9421
:102F60007B1B0F931F93CF93DF93009759F4611549
:102F7000710541F4F0E0E0E0CF01DF91CF911F91C6
:102F80000F9108958B01EC016EE070E081E090E01C
:102F90000E94FC17FC01892B69F380E883830115EB
:102FA000110571F01387028781E883838091D7052B
:102FB0009091D805892B21F4F093D805E093D7059B
:102FC0002097D1F2D187C0878381826083838091EB
:102FD000D9059091DA05892B79F6F093DA05E0931B
:102FE000D9058091DB059091DC05892B29F6F093BA
:102FF000DC05E093DB05C0CF0F931F93CF93DF93E6
:10300000869F8001879F100D969F100D1124C80187
:103010000E947719EC01009729F0A80170E060E0A8
:103020000E94741BCE01DF91CF911F910F910895E3
:10303000A9E0B0E0EEE1F8E10C94B51C6A01F22ED3
:10304000B02E102FFBE3AF2EA01608F41BE31F5F7A
:10305000012F27E0AE014F5F5F4F0E949C1ABC0119
:103060008981982F9970913009F43FC09BE2E1FC6F
:1030700004C09E2D9170E0FC3AC05E2D5071E82F87
:10308000E87083FF46C084E0911101C083E0EF2D1A
:10309000E81B8F1508F0E0E0D6018E2F20E25523C3
:1030A00051F1992329F0D6019C93C60101966C0138
:1030B00096012D5F3F4FE2FE24C08EE4D6018C9333
:1030C00091E411969C93119712968C93D9018E2FAF
:1030D00090E281111BC0E20FF32FF11D10828EEFE1
:1030E0009FEF2996ECE00C94D11C9DE2C6CF90E2B4
:1030F000C4CF2D9381508111FCCFCE0ED11CE0E0C6
:10310000D0CF8EE6D6018C9391E6DBCF9D93815094
:10311000E0CF482F447082FF3DC084E0911101C090
:1031200083E08F1510F4EF2DE81BD6018E2F20E2DF
:10313000552309F1992329F0D6019C93C6010196E4
:103140006C0196012D5F3F4FE2FE1BC089E4D60162
:103150008C938EE411968C93119786E412968C933F
:10316000D9018E2F90E2882309F4B5CF9D93815029
:10317000FACF2D9381508111FCCFCE0ED11CE0E00F
:10318000D9CF89E6D6018C938EE611968C93119750
:1031900086E6E4CF9B0177FF02C030E020E0A1E0AB
:1031A000B0E0911102C0B0E0A0E0F9013196AE0F9D
:1031B000BF1F8B2C912CBB2009F461C05401EFEF91
:1031C000AE1ABE0AAA0DBB1DFA161B0619F014F0A2
:1031D0004F2D4A1B511188C0E3FC59C07601A42F22
:1031E000B0E2A1114FC0C40ED11C992309F45BC0F9
:1031F00040E0D6011196F60190836D01552309F444
:1032000048C0012F060F9A81582F507184FF03C0C8
:10321000913309F4015010160CF047C0093008F042
:1032200008E0EEE2FE2E5B01A01AB1088501919440
:10323000819491082F3F320729F4D601FC92F601C0
:1032400031966F016217730794F1021713077CF52B
:10325000DB01A21BB30BAA24A394B12CAC0EBD1EA0
:10326000AA0DBB1D11968C9121503109D6011196E2
:1032700028153905F4F0F60180836D01DBCFB12C00
:10328000A12CA0CFF701B1937F01A150AACF91113A
:10329000B0CFD601942F50E302C05D9391509111AD
:1032A000FCCFC40ED11C40E0ACCF01E0BACF80E32C
:1032B000DBCF6217730731F4963388F4953311F43A
:1032C000552369F0F6018083FD01842F90E281117E
:1032D00008C0A40FB11D1C9290E080E002CF81E3F2
:1032E000F1CF91938150F3CF911183CF8ACF0F9378
:1032F0001F93CF93DF938230910510F482E090E02A
:10330000E091DF05F091E00530E020E0B0E0A0E0E2
:10331000309799F42115310509F44AC0281B390B5F
:1033200024303105D8F58A819B816115710589F1B9
:10333000FB0193838283FE0111C040815181028190
:10334000138148175907E0F04817590799F4109767
:1033500061F012960C93129713961C933296CF013C
:10336000DF91CF911F910F9108950093DF05109386
:10337000E005F4CF2115310551F04217530738F01D
:10338000A901DB019A01BD01DF01F801C1CFEF0105
:10339000F9CF9093E0058093DF05CDCFFE01E20FDA
:1033A000F31F819391932250310939832883D7CF1A
:1033B0002091DD053091DE05232B41F4209102019F
:1033C000309103013093DE052093DD05209100014B
:1033D000309101012115310541F42DB73EB74091DF
:1033E000040150910501241B350BE091DD05F0919E
:1033F000DE05E217F307A0F42E1B3F0B2817390751
:1034000078F0AC014E5F5F4F2417350748F04E0F40
:103410005F1F5093DE054093DD05819391939FCF0D
:10342000F0E0E0E09CCFCF93DF930097E9F0FC0160
:10343000329713821282A091DF05B091E005ED0171
:1034400030E020E01097A1F420813181820F931F9A
:103450002091DD053091DE052817390709F061C09C
:10346000F093DE05E093DD05DF91CF910895EA0149
:10347000CE17DF07E8F54A815B819E0141155105B2
:10348000B1F7E901FB83EA8349915991C40FD51F34
:10349000EC17FD0761F4808191810296840F951FDE
:1034A000E90199838883828193819B838A83F0E0F9
:1034B000E0E012968D919C9113970097B9F52D91AC
:1034C0003C911197CD010296820F931F2091DD054B
:1034D0003091DE052817390739F6309751F51092EB
:1034E000E0051092DF05B093DE05A093DD05BCCFAB
:1034F000D383C28340815181840F951FC817D90798
:1035000061F44E5F5F4F88819981480F591F518345
:1035100040838A819B81938382832115310509F041
:10352000B0CFF093E005E093DF059ECFFD01DC0115
:10353000C0CF13821282D7CF283008F027E033277C
:10354000DA01990F311D87FD9160009661057105C3
:1035500039F432602E5F3D9330E32A95E1F7089508
:103560009F3F30F080387105610509F03C5F3C5F9A
:103570003D93913008F08068911DDF93CF931F93A6
:103580000F93FF92EF92192F987F9695E92F9695BA
:103590009695E90FFF27EE53FF4F99273327EE2427
:1035A000FF24A701E70105900894079428F4360F3B
:1035B000E71EF81E491F511D660F771F881F991FB0
:1035C0000694A1F70590079428F4E70EF81E491F0A
:1035D000561FC11D770F881F991F661F0694A1F7FC
:1035E0000590079428F4F80E491F561FC71FD11DD8
:1035F000880F991F661F771F0694A1F705900794FF
:1036000020F4490F561FC71FD81F990F661F771F39
:10361000881F0694A9F784911095177041F0D695EC
:10362000C79557954795F794E7941A95C1F7E8E63B
:10363000F0E06894159015913591659195910590FC
:103640007FE27395E118F10A430B560BC90BD009C1
:10365000C0F7E10CF11E431F561FC91FD01D7EF499
:10366000703311F48A95E6CFE894015030F0080FDA
:103670000AF40027021708F4202F2395022F7A332B
:1036800028F079E37D932A95E9F710C07D932A9578
:1036900089F6069497956795379517951794E118CD
:1036A000F10A430B560BC90BD00998F023957E9174
:1036B00073957A3308F070E37C932013B8F77E910A
:1036C00070617D9330F0839571E37D9370E32A956B
:1036D000E1F71124EF90FF900F911F91CF91DF91AF
:1036E000992787FD90950895DC0101C06D934150A5
:1036F0005040E0F70895DC01FC01672F71917723BA
:10370000E1F7329704C07C916D9370836291AE179C
:10371000BF07C8F308950E94CD1B08F481E0089507
:10372000E89409C097FB3EF490958095709561955B
:103730007F4F8F4F9F4F9923A9F0F92F96E9BB2711
:103740009395F695879577956795B795F111F8CF8D
:10375000FAF4BB0F11F460FF1BC06F5F7F4F8F4FF8
:103760009F4F16C0882311F096E911C0772321F0EE
:103770009EE8872F762F05C0662371F096E8862F86
:1037800070E060E02AF09A95660F771F881FDAF7DD
:10379000880F9695879597F90895990F0008550F0A
:1037A000AA0BE0E8FEEF16161706E807F907C0F0C7
:1037B00012161306E407F50798F0621B730B840BCF
:1037C000950B39F40A2661F0232B242B252B21F4A9
:1037D00008950A2609F4A140A6958FEF811D811D49
:1037E00008950E94041C0C94751C0E94671C38F0FC
:1037F0000E946E1C20F0952311F00C945E1C0C941A
:10380000641C11240C94A91C0E94861C70F3959FC3
:10381000C1F3950F50E0551F629FF001729FBB27C7
:10382000F00DB11D639FAA27F00DB11DAA1F649F63
:103830006627B00DA11D661F829F2227B00DA11D16
:10384000621F739FB00DA11D621F839FA00D611D9C
:10385000221F749F3327A00D611D231F849F600DBD
:10386000211D822F762F6A2F11249F5750409AF0E6
:10387000F1F088234AF0EE0FFF1FBB1F661F771F72
:10388000881F91505040A9F79E3F510580F00C943D
:103890005E1C0C94A91C5F3FE4F3983ED4F386951C
:1038A00077956795B795F795E7959F5FC1F7FE2BDD
:1038B000880F911D9695879597F9089597F99F67B9
:1038C00080E870E060E008959FEF80EC08950024A8
:1038D0000A941616170618060906089500240A9475
:1038E00012161306140605060895092E0394000CFB
:1038F00011F4882352F0BB0F40F4BF2B11F460FF8A
:1039000004C06F5F7F4F8F4F9F4F089557FD9058B2
:10391000440F551F59F05F3F71F04795880F97FB93
:10392000991F61F09F3F79F087950895121613064D
:103930001406551FF2CF4695F1DF08C0161617067C
:103940001806991FF1CF86957105610508940895B1
:10395000E894BB2766277727CB0197F908952F9224
:103960003F924F925F926F927F928F929F92AF920F
:10397000BF92CF92DF92EF92FF920F931F93CF935C
:10398000DF93CDB7DEB7CA1BDB0B0FB6F894DEBFF3
:103990000FBECDBF09942A88398848885F846E8419
:1039A0007D848C849B84AA84B984C884DF80EE8063
:1039B000FD800C811B81AA81B981CE0FD11D0FB66C
:1039C000F894DEBF0FBECDBFED0108955058BB2760
:1039D000AA270E94FE1C0C94751C0E94671C38F0DC
:1039E0000E946E1C20F039F49F3F19F426F40C94C9
:1039F000641C0EF4E095E7FB0C945E1CE92F0E941A
:103A0000861C58F3BA17620773078407950720F0DE
:103A100079F4A6F50C94A81C0EF4E0950B2EBA2FA1
:103A2000A02D0B01B90190010C01CA01A0011124C4
:103A3000FF27591B99F0593F50F4503E68F11A1670
:103A4000F040A22F232F342F4427585FF3CF469501
:103A500037952795A795F0405395C9F77EF41F1623
:103A6000BA0B620B730B840BBAF09150A1F0FF0FED
:103A7000BB1F661F771F881FC2F70EC0BA0F621FD9
:103A8000731F841F48F4879577956795B795F795C9
:103A90009E3F08F0B0CF9395880F08F09927EE0F5E
:103AA0009795879508950E94671D0C94751C0E9438
:103AB0006E1C58F00E94671C40F029F45F3F29F00B
:103AC0000C945E1C51110C94A91C0C94641C0E9453
:103AD000861C68F39923B1F3552391F3951B550B7D
:103AE000BB27AA2762177307840738F09F5F5F4FD1
:103AF000220F331F441FAA1FA9F335D00E2E3AF010
:103B0000E0E832D091505040E695001CCAF72BD027
:103B1000FE2F29D0660F771F881FBB1F2617370778
:103B20004807AB07B0E809F0BB0B802DBF01FF27AA
:103B300093585F4F3AF09E3F510578F00C945E1C0D
:103B40000C94A91C5F3FE4F3983ED4F386957795D7
:103B50006795B795F7959F5FC9F7880F911D969563
:103B6000879597F90895E1E0660F771F881FBB1FBF
:103B7000621773078407BA0720F0621B730B840B6C
:103B8000BA0BEE1F88F7E09508950E94CD1B08F44C
:103B90008FEF089519F416F40C94641C0C94101E05
:103BA0000E948E1CB8F39923C9F3B6F39F57550BA7
:103BB00087FF0E941E1E0024A0E640EA9001805864
:103BC0005695979528F4805C660F771F881F20F024
:103BD00026173707480730F4621B730B840B202924
:103BE00031294A2BA69517940794202531254A2779
:103BF00058F7660F771F881F20F0261737074807EA
:103C000030F4620B730B840B200D311D411DA09508
:103C100081F7B901842F9158880F9695879508955B
:103C20009F3F31F0915020F4879577956795B79530
:103C3000880F911D9695879597F90895915050405A
:103C4000660F771F881FD2F7089597FB072E16F48B
:103C5000009407D077FD09D00E94611E07FC05D0B3
:103C60003EF4909581959F4F0895709561957F4F93
:103C70000895A1E21A2EAA1BBB1BFD010DC0AA1FAD
:103C8000BB1FEE1FFF1FA217B307E407F50720F0C5
:103C9000A21BB30BE40BF50B661F771F881F991F40
:103CA0001A9469F760957095809590959B01AC0189
:103CB000BD01CF010895EE0FFF1F0590F491E02D97
:103CC0000994AA1BBB1B51E107C0AA1FBB1FA61763
:103CD000B70710F0A61BB70B881F991F5A95A9F7B5
:103CE00080959095BC01CD010895B0E0A0E0EBE790
:103CF000FEE10C94B11C8C01009751F4CB010E94A1
:103D000077198C01C801CDB7DEB7E0E10C94CD1C6A
:103D1000FC01E60FF71F9C0122503109E217F3075F
:103D200008F49DC0D901CD91DC911197C617D70732
:103D300098F0C530D10530F3CE0104978617970768
:103D400008F3C61BD70B2297C193D1936D937C9335
:103D5000CF010E94131AD6CF5B01AC1ABD0A4C01E9
:103D60008C0E9D1EA091DF05B091E005512C412CD9
:103D7000F12CE12C109731F58091DD059091DE0555
:103D80008815990509F05CC04616570608F058C01A
:103D90008091000190910101009741F48DB79EB789
:103DA0004091040150910501841B950BE817F90718
:103DB00008F055C0F093DE05E093DD05F90171834D
:103DC0006083A0CF8D919C91119712966C90129761
:103DD00013967C901397A815B90559F56C0142E02C
:103DE000C40ED11CCA14DB0420F1AC014A195B09D2
:103DF000DA011296159780F06282738251834083B4
:103E0000D9016D937C93E114F10471F0D7011396FD
:103E1000FC93EE93129776CF22968C0F9D1FF9019B
:103E200091838083F301EFCFF093E005E093DF050A
:103E300069CF4816590608F42C017D01D3019ACFA9
:103E4000CB010E9477197C01009749F0AE01B801BF
:103E50000E94321FC8010E94131A870153CF10E03D
:103E600000E050CFFB01DC0102C001900D924150F7
:103E70005040D8F70895FB01DC018D910190801925
:103E80000110D9F3990B0895FB01DC0101900D920B
:103E90000020E1F70895F894FFCF0000E1058000CD
:103EA000000040001400540000000000C90220027D
:103EB0005602160387026502790200000000B2056F
:103EC0008505F5055B057E056B055C0500000000BA
:103ED00004072002F5051F020D0A006972206F6EAB
:103EE00000796573006E6F0030003A00424F554E06
:103EF00043455F464F525F41435F4F4E00424F552F
:103F00004E435F464F525F41435F4F464600414339
:103F10005F44495341424C494E4700424F554E433E
:103F20005F464F525F44495341424C0041435F4416
:103F3000495341424C454400424F554E5F464F5F06
:103F400041435F454E41424C002153454E534F5231
:103F50005F4641554C542100456E64206F662062D7
:103F60006174746572793A200048656174657220E5
:103F7000656E61626C65643A200044697361626CCD
:103F800065204F54502072656C6F61643A200020A8
:103F90002020202057454C434F4D45202020200015
:103FA000696E646F6F72206973206F666600696E58
:103FB000646F6F72206973206F6E006163203D2013
:103FC000486561746572006163203D20436F6F6CCA
:103FD0006572004F4E20202020202020202020200D
:103FE0004F464600446973202020202020202020B6
:103FF0002020456E0048656174696E67204F464613
:104000002000424F554E43494E475F464F525F484E
:10401000454154494E475F454E41424C45003E00A4
:1040200068656174696E675F656E61626C650046A4
:10403000616C736520616C61726D00456E2020209B
:1040400020202020202020204469730048656174CE
:10405000696E6720204F4E2000424F554E43494E17
:10406000475F464F525F48454154494E475F444978
:104070005341424C450068656174696E675F6469CD
:104080007361626C6500424F554E43494E475F462F
:104090004F525F4845415445525F4F4646002020ED
:1040A00020202020204F4646202020202020004F86
:1040B000464620202020202020202020204F4E0077
:1040C000424F554E43494E475F464F525F48454128
:1040D0005445525F4F4E00202020202020204F4E7C
:1040E000202020202020200041435F4449534142AA
:1040F0004C454420425554544F4E2052454C454166
:10410000534544004845415445525F54454D504540
:104110005241545552455F53454E534F525F4641AD
:10412000554C5400202053454E534F525F46415545
:104130004C542020004845415445525F4D4F444562
:104140005F53454C4543544F523D00424F554E43FB
:10415000494E475F464F525F41435F4F4E00424FCB
:10416000554E43494E475F464F525F41435F4F466E
:104170004600424F554E43494E475F464F525F41BE
:10418000435F44495341424C4500424F554E4349D9
:104190004E475F464F525F41435F454E41424C455B
:1041A000002300202020202020202020202020204C
:0E41B0002020202020200020480025002A008A
:107800000C94343C0C94513C0C94513C0C94513CE1
:107810000C94513C0C94513C0C94513C0C94513CB4
:107820000C94513C0C94513C0C94513C0C94513CA4
:107830000C94513C0C94513C0C94513C0C94513C94
:107840000C94513C0C94513C0C94513C0C94513C84
:107850000C94513C0C94513C0C94513C0C94513C74
:107860000C94513C0C94513C11241FBECFEFD8E036
:10787000DEBFCDBF11E0A0E0B1E0ECE9FFE702C060
:1078800005900D92A230B107D9F712E0A2E0B1E065
:1078900001C01D92AD30B107E1F70E942D3D0C945F
:1078A000CC3F0C94003C982F959595959595959582
:1078B000905D8F708A307CF0282F295A8091C0000B
:1078C00085FFFCCF9093C6008091C00085FFFCCF60
:1078D0002093C6000895282F205DF0CF982F809127
:1078E000C00085FFFCCF9093C6000895EF92FF92F1
:1078F0000F931F93EE24FF2487018091C00087FD22
:1079000017C00894E11CF11C011D111D81E4E8164B
:1079100082E4F8068FE0080780E0180770F3E09132
:107920000401F091050109958091C00087FFE9CF1E
:107930008091C6001F910F91FF90EF9008950E94D3
:10794000763C982F8091C00085FFFCCF9093C600B5
:1079500091362CF490330CF09053892F089597555D
:10796000892F08951F930E949F3C182F0E949F3CCF
:107970001295107F810F1F9108951F93182F882350
:1079800021F00E94763C1150E1F71F9108951F935A
:10799000182F0E94763C803249F0809103018F5F5E
:1079A000809303018530C1F01F9108958091C0003C
:1079B00085FFFCCF84E18093C6008091C00085FFE5
:1079C000FCCF1093C6008091C00085FFFCCF80E102
:1079D0008093C6001F910895E0910401F091050184
:1079E00009951F9108950E94763C803241F0809164
:1079F00003018F5F80930301853081F008958091AA
:107A0000C00085FFFCCF84E18093C6008091C00058
:107A100085FFFCCF80E18093C6000895E0910401CA
:107A2000F09105010995089540E951E08823A1F0FE
:107A30002D9A28EE33E0FA013197F1F721503040CA
:107A4000D1F72D9828EE33E0FA013197F1F7215064
:107A50003040D1F7815061F708953F924F925F9285
:107A60006F927F928F929F92AF92BF92CF92DF924E
:107A7000EF92FF920F931F93CF93DF93000080E16B
:107A80008093C4001092C50088E18093C10086E015
:107A90008093C2005098589A259A81E00E94143D24
:107AA00024E1F22E9EE1E92E85E9D82E0FE0C02ECA
:107AB00010E1B12EAA24A394B1E49B2EA6E58A2E50
:107AC000F2E57F2EE0E26E2E79E4572E63E5462E36
:107AD00050E5352E0E94763C8033B1F18133B9F107
:107AE000803409F46FC0813409F476C0823409F41B
:107AF00085C0853409F488C0803531F1823521F1A3
:107B0000813511F1853509F485C0863509F48DC0BC
:107B1000843609F496C0843709F403C1853709F423
:107B200072C1863709F466C0809103018F5F80932C
:107B30000301853079F6E0910401F0910501099582
:107B40000E94763C803351F60E94F33CC3CF0E94E2
:107B5000763C803249F78091C00085FFFCCFF092DF
:107B6000C6008091C00085FFFCCF9092C600809136
:107B7000C00085FFFCCF8092C6008091C00085FFC9
:107B8000FCCF7092C6008091C00085FFFCCF609250
:107B9000C6008091C00085FFFCCF5092C600809146
:107BA000C00085FFFCCF4092C6008091C00085FFD9
:107BB000FCCF3092C6008091C00085FFFCCFB09210
:107BC000C60088CF0E94763C863808F4BDCF0E945C
:107BD000763C0E94F33C7ECF0E94763C803809F4CC
:107BE0009CC0813809F40BC1823809F43CC1883942
:107BF00009F48FC080E00E94C73C6CCF84E10E94F2
:107C0000BD3C0E94F33C66CF85E00E94BD3C0E94D3
:107C1000F33C60CF0E94763C809306010E94763C44
:107C2000809307010E94F33C55CF0E94763C80333D
:107C300009F41DC183E00E94BD3C80E00E94C73C66
:107C400049CF0E94763C809309020E94763C809343
:107C5000080280910C028E7F80930C020E94763C79
:107C6000853409F415C18091080290910902892B8D
:107C700089F000E010E00E94763CF801E85FFE4FDA
:107C800080830F5F1F4F80910802909109020817AF
:107C9000190788F30E94763C803209F045CF809125
:107CA0000C0280FF01C16091060170910701660F0F
:107CB000771F7093070160930601A0910802B091AD
:107CC00009021097C9F0E8E0F1E09B01AD014E0F09
:107CD0005F1FF999FECF32BD21BD819180BDFA9A17
:107CE000F99A2F5F3F4FE417F50799F76A0F7B1F4B
:107CF00070930701609306018091C00085FFFCCF5F
:107D0000F092C6008091C00085FFFCCFB092C60003
:107D1000E1CE83E00E94C73CDDCE82E00E94C73CFA
:107D2000D9CE0E94763C809309020E94763C8093D3
:107D300008028091060190910701880F991F909386
:107D40000701809306010E94763C853409F4A6C0A1
:107D500080910C028E7F80930C020E94763C8032D0
:107D600009F0B8CE8091C00085FFFCCFF092C6002C
:107D7000609108027091090261157105B9F140E046
:107D800050E080910C02A82FA170B82FB27011C0E2
:107D9000BB2309F45CC0E0910601F0910701319624
:107DA000F0930701E09306014F5F5F4F46175707B7
:107DB000E8F4AA2369F3F999FECF209106013091E6
:107DC000070132BD21BDF89A90B58091C00085FFB2
:107DD000FCCF9093C6002F5F3F4F30930701209355
:107DE00006014F5F5F4F4617570718F38091C00099
:107DF00085FDE5CE8091C00085FFF8CFE0CE81E023
:107E00000E94C73C67CE0E94763C803209F08CCE3F
:107E10008091C00085FFFCCFF092C6008091C00029
:107E200085FFFCCFE092C6008091C00085FFFCCFAB
:107E3000D092C6008091C00085FFFCCFC092C600E2
:107E40008091C00085FFFCCFB092C60043CEE09188
:107E50000601F091070194918091C00085FFFCCF4D
:107E60009093C6009CCF80E10E94C73C33CE0E9415
:107E7000763C0E94763C182F0E94763C112309F430
:107E800083C0113009F484C08FE00E94C73C22CE29
:107E900080910C02816080930C02E5CE80910C02EF
:107EA000816080930C0259CF809107018823880F4D
:107EB000880B8A2180930B02809106019091070123
:107EC000880F991F90930701809306018091080203
:107ED00080FF09C080910802909109020196909359
:107EE000090280930802F894F999FECF1127E091D6
:107EF0000601F0910701C8E0D1E08091080290915D
:107F00000902103091F40091570001700130D9F34B
:107F100003E000935700E89500915700017001308D
:107F2000D9F301E100935700E89509901990009169
:107F3000570001700130D9F301E000935700E89534
:107F40001395103498F011270091570001700130FB
:107F5000D9F305E000935700E895009157000170B0
:107F60000130D9F301E100935700E895329602976A
:107F700009F0C7CF103011F00296E5CF112480919F
:107F8000C00085FFB9CEBCCE8EE10E94C73CA2CD19
:0E7F900085E90E94C73C9ECDF894FFCF80008B
:00000001FF
