:020000040000FA
:100000000C94DF000C9407010C9407010C94070179
:100010000C9407010C9407010C9407010C94070140
:100020000C9407010C9407010C9407010C94070130
:100030000C9407010C9407010C9407010C94070120
:100040000C941A0A0C9407010C948A0A0C94640A02
:100050000C9407010C9407010C9407010C94070100
:100060000C94BC0A0C94070100407A10F35A00A0CB
:10007000724E18090010A5D4E80000E87648170071
:1000800000E40B54020000CA9A3B000000E1F505B1
:10009000000080969800000040420F000000A086FB
:1000A00001000000102700000000E803000000002D
:1000B0006400000000000A000000000001000000D1
:1000C00000002C76D888DC674F0823DFC1DFAE59EB
:1000D000E1B1B796E5E3E453C63AE651997696E87E
:1000E000E6C28426EB898C9B62ED407C6FFCEFBC02
:1000F0009C9F40F2BAA56FA5F490055A2AF75C932D
:100100006B6CF9676DC11BFCE0E40D47FEF520E662
:10011000B500D0ED902E0300943577050080841E45
:10012000080000204E0A000000C80C333333330FA0
:10013000986E12831141EF8D2114893BE65516CF3D
:10014000FEE6DB18D1844B381BF77C1D901DA4BB49
:10015000E424203284725E228100C9F124ECA1E5FE
:100160003D2700000000240027002A0000000000B6
:10017000250028002B000000000023002600290095
:10018000040404040404040402020202020203033D
:100190000303030301020408102040800102040845
:1001A00010200102040810200000000800020100D5
:1001B000000304070000000000000000DB0B112416
:1001C0001FBECFEFD8E0DEBFCDBF14E0A0E0B1E0AE
:1001D000E4E1FFE302C005900D92A03AB107D9F720
:1001E00026E0A0EAB4E001C01D92A535B207E1F710
:1001F00010E0CFEDD0E004C02197FE010E94A11EC7
:10020000CE3DD107C9F70E942B0C0C94881F0C948B
:100210000000833081F028F4813099F08230A9F019
:1002200008958730A9F08830C9F08430B1F4809106
:1002300080008F7D03C0809180008F778093800045
:10024000089584B58F7784BD089584B58F7DFBCFE5
:100250008091B0008F778093B00008958091B000B6
:100260008F7DF9CFCF93DF93282F30E0F901E85548
:10027000FE4F8491F901EC56FE4FD491F901E058FC
:10028000FE4FC491CC23A1F081110E940901EC2FF3
:10029000F0E0EE0FFF1FEA58FE4FA591B491EC91EC
:1002A000ED2381E090E009F480E0DF91CF910895A3
:1002B00080E090E0FACF1F93CF93DF93282F30E0B8
:1002C000F901E855FE4F8491F901EC56FE4FD491A7
:1002D000F901E058FE4FC491CC23A9F0162F8111EB
:1002E0000E940901EC2FF0E0EE0FFF1FE459FE4FD2
:1002F000A591B4918FB7F894EC91111108C0D095E5
:10030000DE23DC938FBFDF91CF911F910895DE2B09
:10031000F8CFCF93DF9390E0FC01EC56FE4F249191
:1003200080589E4FFC0184918823D1F090E0880F83
:10033000991FFC01EE59FE4FA591B491FC01E459BF
:10034000FE4FC591D49161110EC09FB7F8948C9166
:10035000E22FE0958E238C932881E223E8839FBFD0
:10036000DF91CF9108958FB7F894EC91E22BEC9345
:100370008FBFF6CF3FB7F89480911D0590911E0571
:10038000A0911F05B091200526B5A89B05C02F3F61
:1003900019F00196A11DB11D3FBFBA2FA92F982FAB
:1003A0008827BC01CD01620F711D811D911D42E0A6
:1003B000660F771F881F991F4A95D1F708958F926E
:1003C0009F92AF92BF92CF92DF92EF92FF924B013A
:1003D0005C010E94BA016B017C010E94BA016C1998
:1003E0007D098E099F09683E734081059105A8F338
:1003F00021E0821A9108A108B10888EEC80E83E0B6
:10040000D81EE11CF11C81149104A104B10429F748
:10041000FF90EF90DF90CF90BF90AF909F908F9024
:1004200008952FB7F8946091190570911A0580917D
:100430001B0590911C052FBF089508950895AF9254
:10044000BF92CF92DF92EF92FF920F931F93CF93C1
:10045000DF936C017B018B01040F151FEB015E0123
:10046000AE18BF08C017D10759F06991D601ED91B8
:10047000FC910190F081E02DC6010995892B79F757
:10048000C501DF91CF911F910F91FF90EF90DF9009
:10049000CF90BF90AF900895FC0144815581608159
:1004A000718180E396E00C941F02FC01538D448D12
:1004B000252F30E0842F90E0821B930B541710F00F
:1004C000CF96089501970895FC01918D828D98171C
:1004D00061F0A28DAE0FBF2FB11D5D968C91928DF4
:1004E0009F5F9F73928F90E008958FEF9FEF089525
:1004F000FC01918D828D981731F0828DE80FF11DEE
:10050000858D90E008958FEF9FEF0895FC01918D08
:10051000228D892F90E0805C9F4F821B91098F7301
:100520009927089583E995E00E94860221E0892BAE
:1005300009F420E0822F089580E090E0892B29F0D3
:100540000E94920281110C9400000895FC01A48D78
:10055000A80FB92FB11DA35ABF4F2C91848D90E0E5
:1005600001968F739927848FA689B7892C93A089C8
:10057000B1898C91837080648C93938D848D981352
:1005800006C00288F389E02D80818F7D80830895E5
:10059000EF92FF920F931F93CF93DF93EC0181E0D3
:1005A000888F9B8D8C8D98131AC0E889F98980817A
:1005B00085FF15C09FB7F894EE89FF896083E889AD
:1005C000F98980818370806480839FBF81E090E09F
:1005D000DF91CF911F910F91FF90EF900895F62E2C
:1005E0000B8D10E00F5F1F4F0F731127E02E8C8DC6
:1005F0008E110CC00FB607FCFACFE889F98980810B
:1006000085FFF5CFCE010E94A602F1CFEB8DEC0F56
:10061000FD2FF11DE35AFF4FF0829FB7F8940B8F27
:10062000EA89FB8980818062CFCFCF93DF93EC0191
:10063000888D8823B9F0AA89BB89E889F9898C91CA
:1006400085FD03C0808186FD0DC00FB607FCF7CF86
:100650008C9185FFF2CF808185FFEDCFCE010E9486
:10066000A602E9CFDF91CF91089508952091C104AA
:10067000260F3327331F21323105ECF42091690511
:10068000FC0190E080E0243069F082E00895A091C0
:10069000C1042191AC014F555B4FA40FB52FB11D83
:1006A0002C930196861798F38091C104680F60938C
:1006B000C10480E0089581E008951092690581E009
:1006C000809368051092430561E082E10E945B011E
:1006D00061E083E10E945B01E9EBF0E080818E7FC5
:1006E000808380818D7F808388E48093B80085E457
:1006F0008093BC000895CF93DF9391E09093A00482
:100700008823B9F0C091B800D091BA008091BC00A4
:100710008A7B8093BC0060E082E10E945B0160E024
:1007200083E10E945B010E945D03D093BA00C093F5
:10073000B800DF91CF9108958F929F92AF92BF92B0
:10074000CF92DF92EF92FF920F931F93CF93DF939D
:10075000D0919205D13208F0D7C0182FC0919105E1
:100760000E94BA016B017C018091690581116BC007
:1007700082E080936905109368058FEF8093670589
:1007800010926605D0936505A1E7B5E0E5E4F5E0D4
:1007900080E0D81391C01092440580914405CC0F9D
:1007A000C82BC093440580914305813009F088C06F
:1007B000109243050E94BA016B017C0180914405AF
:1007C0008093BB0080916B0590916C05A0916D05A5
:1007D000B0916E05892B8A2B8B2BA1F00E94BA0158
:1007E00000916B0510916C0520916D0530916E059F
:1007F0006C197D098E099F09061717072807390705
:1008000008F442C08091BC0083FDD8CF85EC809372
:10081000BC000E94BA016B017C01809169058230A5
:1008200009F450C0809167058F3F09F46FC0809133
:100830006705803209F46CC080916705803309F444
:1008400069C084E026C080916B0590916C05A091F1
:100850006D05B0916E05892B8A2B8B2B09F484CF03
:100860000E94BA0180906B0590906C05A0906D0578
:10087000B0906E056C197D098E099F098616970642
:10088000A806B90608F070CF80916A050E947B0324
:1008900085E0109270051092920510926F05DF911D
:1008A000CF911F910F91FF90EF90DF90CF90BF906D
:1008B000AF909F908F9008959D9191938F5F69CF96
:1008C00085EEA5CF80916B0590916C05A0916D058B
:1008D000B0916E05892B8A2B8B2B09F49ECF0E9439
:1008E000BA0100916B0510916C0520916D05309156
:1008F0006E056C197D098E099F09061717072807D1
:10090000390708F08ACFC0CF81E0C3CF80E0C1CFE4
:1009100082E0BFCF83E0BDCFCF92DF92EF92FF9214
:100920000F931F93CF93DF93D82FC62F613208F018
:1009300098C00E94BA016B017C0180916905811108
:100940006BC081E080936905809368059FEF909369
:100950006705109266059C0F90936505809344058A
:1009600080914405DD0FD82BD09344058091430539
:10097000813009F078C0109243050E94BA016B01E2
:100980007C01809144058093BB0080916B05909120
:100990006C05A0916D05B0916E05892B8A2B8B2B70
:1009A000A1F00E94BA0100916B0510916C05209195
:1009B0006D0530916E056C197D098E099F0906172A
:1009C00017072807390708F448C08091BC0083FD49
:1009D000D8CF85EC8093BC000E94BA016B017C01EA
:1009E00080916905813009F440C0809166058C17BB
:1009F00010F4C0916605E5E4F5E0A3E2B5E080E01F
:100A00008C1355C08C2FDF91CF911F910F91FF90C8
:100A1000EF90DF90CF90089580916B0590916C05D9
:100A2000A0916D05B0916E05892B8A2B8B2B09F453
:100A300084CF0E94BA0100916B0510916C05209142
:100A40006D0530916E056C197D098E099F09061799
:100A500017072807390708F070CF80916A050E94B0
:100A60007B03C0E0CFCF85EEB5CF80916B05909131
:100A70006C05A0916D05B0916E05892B8A2B8B2B8F
:100A800009F4AECF0E94BA0100916B0510916C057C
:100A900020916D0530916E056C197D098E099F09B5
:100AA000061717072807390708F09ACFD6CF919174
:100AB0009D938F5FA5CF0895E09122058091210538
:100AC000E81730F4F0E0ED5DFA4F808190E0089592
:100AD0008FEF9FEF089590912205809121052FEFD0
:100AE0003FEF981748F4E92FF0E0ED5DFA4F2081D1
:100AF00030E09F5F90932205C90108958091210500
:100B000090912205891B990B0895CF92DF92EF9265
:100B1000FF920F931F93CF93DF937C01CB018A0148
:100B200020916F05222389F0EB016B01C40ED51EC5
:100B3000CC15DD0569F06991D701ED91FC9101902B
:100B4000F081E02DC7010995F3CF642F0E94360391
:100B5000C801DF91CF911F910F91FF90EF90DF902F
:100B6000CF900895CF93DF931F92CDB7DEB76983FF
:100B700020916F052223F9F020919205203258F040
:100B800021E030E0FC013383228390E080E00F908D
:100B9000DF91CF91089580917005E82FF0E0EF5834
:100BA000FA4F998190838F5F8093700580939205AF
:100BB00081E090E0ECCF61E0CE0101960E94360327
:100BC000F7CFFC01248131E030936F05209391052C
:100BD00010927005109292058385682B8CE396E045
:100BE0000E94B20581E00C949C0390E080E008959F
:100BF000CF93C82F682F83E995E00E94C8028C2FFD
:100C0000CC0F990BCF9108958F929F92AF92BF9284
:100C1000CF92DF92EF92FF92CF93A0914906B091CD
:100C20004A069091480621E020936F059093910524
:100C30001092700510929205ED91FC911197019020
:100C4000F081E02D682FCD01099581E00E949C0381
:100C5000CAE0882361F086EE93E0CF91FF90EF9099
:100C6000DF90CF90BF90AF909F908F9008956AE0F3
:100C700070E080E090E00E94DF0163E08091480630
:100C80000E948C041092220580932105C15019F313
:100C9000833069F78091490690914A06DC01ED9115
:100CA000FC910284F385E02D0995F82E8091490688
:100CB00090914A06DC01ED91FC910284F385E02DD0
:100CC0000995C82F8091490690914A06DC01ED9163
:100CD000FC910284F385E02D099520E03F2D2C2B1B
:100CE000A90170E060E0762F652F542F4427482B30
:100CF00087E190E0C12CE0E8DE2EE8E9EE2EF12C51
:100D00004A015B01082E04C0B694A7949794879477
:100D10000A94D2F780FE04C04C255D256E257F2500
:100D2000F694E794D794C79401978730910541F7DB
:100D3000C9018C7F442309F490CF87EE93E08DCFD7
:100D40000F931F93CF938C01C62F0E94E1056C2F48
:100D50006460C8010E94E1056C2F6B7FC8010E948E
:100D6000E10583EC90E00197F1F7CF911F910F918E
:100D700008950F931F93CF93DF938C01D62FC42F29
:100D8000607F642B0E94A00680E1D89FB0011124EF
:100D90006C2BC801DF91CF911F910F910C94A0068D
:100DA000CF93DF93CDB7DEB728970FB6F894DEBFA9
:100DB0000FBECDBF98E0E6E0F1E0DE0111960190B4
:100DC0000D929A95E1F790913806961710F46FEF0F
:100DD000690F262F30E0220F331F41E050E04C0F07
:100DE0005D1F240F351FF9016081680F606840E0C6
:100DF00080E396E028960FB6F894DEBF0FBECDBF15
:100E0000DF91CF910C94B90641E00E94B90681E0D0
:100E100090E00895FB0101900020E9F73197AF01C0
:100E2000461B570BDC01ED91FC910280F381E02D14
:100E300009948F929F92AF92BF920F931F93CF937B
:100E4000DF93CDB7DEB7A1970FB6F894DEBF0FBE24
:100E5000CDBF19A2423008F44AE08E010F5D1F4F4A
:100E6000842E912CB12CA12CA50194010E947F1EEF
:100E7000E62FB901CA01EA3004F5E05DD801EE932E
:100E80008D01232B242B252B79F790E080E0109700
:100E900029F0BD0183E995E00E940A07A1960FB6EB
:100EA000F894DEBF0FBECDBFDF91CF911F910F91A0
:100EB000BF90AF909F908F900895E95CDFCFCF9364
:100EC000DF93BC0183E995E00E940A07EC016EE321
:100ED00071E083E995E00E940A078C0F9D1FDF9166
:100EE000CF910895CF93DF93D82FC62F662371F04B
:100EF00061E084E00E945B0181E491E00E945F0771
:100F00006AE070E080E090E00E94DF0161E08D2FF8
:100F10000E945B0162E370E080E090E00E94DF01EC
:100F200060E08D2F0E945B016AEF70E080E090E04E
:100F30000E94DF01CC2331F060E084E0DF91CF91AB
:100F40000C945B01DF91CF91089561E080E190E026
:100F50000C947207CF93DF93C0E1D0E060E081E1B1
:100F600090E00E9472072197C9F761E081E190E06B
:100F7000DF91CF910C94720760E081E190E00E94D4
:100F8000720761E085E090E00C947207CF93DF93E5
:100F9000C0E1D0E060E085E090E00E947207219718
:100FA000C9F761E085E090E0DF91CF910C94720782
:100FB000CF93DF93BC01990F880B990B4AE00E94F5
:100FC0001907EC016EE371E083E995E00E940A07DE
:100FD0008C0F9D1FDF91CF9108950C940A07CF933A
:100FE000DF93EB01BC0183E995E00E94ED0787E404
:100FF00091E0CD2B11F48BE491E0DF91CF910C9433
:101000005F070F931F93CF93DF93EC018881998142
:10101000009759F02A813B812617370730F081E08D
:10102000DF91CF911F910F9108958B016F5F7F4FDB
:101030000E94BB1E009759F0998388831B830A8303
:101040002C813D81232B59F7FC011082E8CF80E0F1
:10105000E7CFEF92FF920F931F93CF93DF9361152A
:10106000710541F480E0DF91CF911F910F91FF90C6
:10107000EF90089541155105B1F07B01EC010C8111
:101080001D81040F151FB8010E940108882351F328
:10109000288139818C819D81B701820F931F0E9425
:1010A000811F1D830C8381E0DECFCF93DF93EC01A2
:1010B00088819981009711F00E94591A198218822B
:1010C0001D821C821B821A82DF91CF910895CF93DB
:1010D000DF93EC01FB0101900020E9F73197AF01AC
:1010E000461B570B0E942908811103C0CE010E94A4
:1010F0005508CE01DF91CF910895CF93DF93EC0196
:10110000FB0144815581608171810E942908811110
:1011100003C0CE010E945508CE01DF91CF91089502
:10112000EF92FF920F931F93CF93DF93EC017B011C
:101130008A01BA010E94010881110BC0CE010E94F0
:101140005508CE01DF91CF911F910F91FF90EF9045
:1011500008951D830C83B701888199810E94811FA6
:10116000F0CFFB0101900020E9F73197AF01461B5A
:10117000570B0C9490080F931F93CF93DF93CDB729
:10118000DEB762970FB6F894DEBF0FBECDBF8C01FD
:10119000CB01F8011182108213821282158214820F
:1011A0004AE0BE016F5F7F4F0E94D217BE016F5FA2
:1011B0007F4FC8010E94B10862960FB6F894DEBF57
:1011C0000FBECDBFDF91CF911F910F910895CF93A7
:1011D000DF93EC01FB018617970749F0608171816D
:1011E0006115710541F0448155810E949008CE013E
:1011F000DF91CF9108950E945508F9CFFC0111822B
:1012000010821382128215821482FB010190002049
:10121000E9F73197AF01461B570B0C949008FC017E
:1012200080819181009711F00C94591A0895CF9202
:10123000DF92EF92FF920F931F93CF93DF93CDB77F
:10124000DEB768970FB6F894DEBF0FBECDBF8C0136
:10125000C090F904D090FA04E090FB04F090FC04F4
:101260000E94110220ECC20E27E2D21E29E0E21EEB
:10127000F11CA7019601261B370B480B590BCA011D
:10128000B90128EE33E040E050E00E947F1EC90122
:101290006CE370E00E946B1E6B017C01BC01CE010F
:1012A00043960E94BB0860E471E03AE0E316F10463
:1012B00014F46EE471E0CE010D960E94FE08B601B2
:1012C000CE0101960E94BB0818861F821A861986D5
:1012D0001C861B86BE016F5F7F4FCE0107960E9462
:1012E000E70860E571E0CE0107960E946708BE013D
:1012F000635F7F4F0E947D08BE016D5E7F4F0E943D
:101300007D08F801118210821382128215821482E4
:10131000BC01C8010E94E708CE0107960E940F0990
:10132000CE0101960E940F09CE010D960E940F0971
:10133000CE0143960E940F09C80168960FB6F89433
:10134000DEBF0FBECDBFDF91CF911F910F91FF90F8
:10135000EF90DF90CF900895EF92FF920F931F933D
:10136000CF93DF93CDB7DEB7A1970FB6F894DEBF6A
:101370000FBECDBF7C01CB01BA01F70111821082F3
:10138000138212821582148242E0420F8E010F5F97
:101390001F4F0E94B417009789F0BC01C7010E943B
:1013A000B108A1960FB6F894DEBF0FBECDBFDF9196
:1013B000CF911F910F91FF90EF900895C7010E9468
:1013C0005508EFCF85ED8093BC0080916B0590911F
:1013D0006C05A0916D05B0916E050796A11DB11D1C
:1013E00023E0B695A795979587952A95D1F72091F3
:1013F000BC0024FD03C010926905089540916B055F
:1014000050916C0560916D0570916E05452B462BD2
:10141000472B69F30097A105B10541F02AE22A950F
:10142000F1F700C00197A109B109E1CF80916A05E8
:101430000C947B031F920F920FB60F9211242F93DF
:101440003F938F939F93AF93BF9380911905909192
:101450001A05A0911B05B0911C053091180523E0D9
:10146000230F2D3758F50196A11DB11D20931805A6
:101470008093190590931A05A0931B05B0931C0542
:1014800080911D0590911E05A0911F05B09120052A
:101490000196A11DB11D80931D0590931E05A0937B
:1014A0001F05B0932005BF91AF919F918F913F9100
:1014B0002F910F900FBE0F901F90189526E8230FC5
:1014C0000296A11DB11DD2CF1F920F920FB60F929F
:1014D00011242F933F934F935F936F937F938F9339
:1014E0009F93AF93BF93EF93FF9383E995E00E949F
:1014F000A602FF91EF91BF91AF919F918F917F9144
:101500006F915F914F913F912F910F900FBE0F9070
:101510001F9018951F920F920FB60F9211242F93C0
:101520008F939F93EF93FF93E091A305F091A40510
:101530008081E091A905F091AA0582FD1BC09081F0
:101540008091AC058F5F8F732091AD05821741F0BC
:10155000E091AC05F0E0ED56FA4F958F8093AC0525
:10156000FF91EF919F918F912F910F900FBE0F9050
:101570001F9018958081F4CF1F920F920FB60F9293
:1015800011242F933F934F935F936F937F938F9388
:101590009F93AF93BF93EF93FF938091B900887FA0
:1015A000803609F44AC0F0F5883209F4A7C018F56E
:1015B000803109F49BC0B8F4882309F4F9C088305D
:1015C00009F494C0FF91EF91BF91AF919F918F91DA
:1015D0007F916F915F914F913F912F910F900FBE2F
:1015E0000F901F901895883109F488C0803251F708
:1015F0008093670514C0803409F49DC040F48033A3
:10160000B9F38833F9F68093670585ECB0C080356F
:1016100009F485C0883509F496C0883499F60E948B
:10162000E209D0CF883909F48CC038F5883729F021
:1016300050F4883611F0803729F683E080936905ED
:101640001092E30457C0883809F47BC0803919F040
:10165000803809F0B7CF8091E304803208F071C080
:10166000E091E30481E08E0F8093E3048091BB005E
:10167000F0E0ED53FB4F80833DC0803B39F0E0F458
:10168000803A09F479C0883A09F09CCF84E08093CD
:1016900069051092C2041092C104E091E404F09133
:1016A000E50409958091C10481110FC081E0809308
:1016B000C1041092A10409C0803C09F4A6CF883C63
:1016C00009F4A3CF883B09F07DCFE091C20481E00B
:1016D0008E0F8093C204F0E0EF55FB4F8081809322
:1016E000BB009091C2048091C10429C0809144053F
:1016F0008093BB0085EC8093BC0064CF909166051D
:1017000080916505981758F5E091660581E08E0F88
:1017100080936605F0E0EB5BFA4F8081E9CFE091C2
:10172000660581E08E0F809366058091BB00F0E036
:10173000EB5BFA4F80839091660580916505981761
:10174000C8F285E8D8CFE091660581E08E0F8093DE
:1017500066058091BB00F0E0EB5BFA4F80838091DF
:10176000680581115CCF81E08093430584EA809312
:10177000BC001092690526CF85EC8093BC001092C6
:1017800069058091E304803230F4E091E304F0E0F5
:10179000ED53FB4F10826091E30470E0E091E604AA
:1017A000F091E70483EC94E009951092E3040ACFEA
:1017B0001092670534CFE3E9F5E01382128288EED8
:1017C00093E0A0E0B0E084839583A683B78322E111
:1017D00031E03183208325EC30E03587248724EC09
:1017E00030E03787268720EC30E0318B208B21ECEE
:1017F00030E0338B228B22EC30E0358B248B26ECCF
:1018000030E0378B268B118E128E138E148EECE304
:10181000F6E01382128284839583A683B78384E2E1
:1018200091E091838083A8E4B6E080E48C931296E3
:10183000FC93EE931197E0E3F6E01382128286E3C5
:1018400091E09183808387E2848380E1818784E0D3
:10185000828713860895CF93DF93CDB7DEB7A09725
:101860000FB6F894DEBF0FBECDBF789484B582600A
:1018700084BD84B5816084BD85B5826085BD85B534
:10188000816085BD80916E00816080936E001092B2
:10189000810080918100826080938100809181002D
:1018A00081608093810080918000816080938000BE
:1018B0008091B10084608093B1008091B00081601C
:1018C0008093B00080917A00846080937A00809148
:1018D0007A00826080937A0080917A0081608093A0
:1018E0007A0080917A00806880937A001092C1001B
:1018F000E091A305F091A40582E08083E0919F052B
:10190000F091A0051082E091A105F091A20580E17F
:1019100080831092AB05E091A705F091A80586E0C1
:101920008083E091A505F091A60580818061808388
:10193000E091A505F091A605808188608083E09103
:10194000A505F091A605808180688083E091A505BA
:10195000F091A60580818F7D808370E060E088EF44
:1019600095E00E94F717109222051092210510921F
:101970007005109292050E945D036DE1C62E62E033
:10198000D62ED092E504C092E4047EE1E72E72E008
:10199000F72EF092E704E092E6046CE271E080E05A
:1019A00090E00E94DF018091490690914A062091C3
:1019B000480631E030936F0520939105DC01ED91ED
:1019C000FC910190F081E02D67EE099581E00E9485
:1019D0009C0361E0809148060E948C0410922205CD
:1019E000809321058091490690914A06DC01ED9192
:1019F000FC910284F385E02D0995182F682F6074FF
:101A000070E082E591E00E94EF07612F647070E062
:101A100083E691E00E94EF071270612F70E084E787
:101A200091E00E94EF0761E081E10E94890161E09D
:101A300085E00E94890161E080E10E94890161E006
:101A40008EE00E94890161E084E00E94890160E0EB
:101A500083E00E94890160E086E00E94890160E0E5
:101A600087E00E94890160E088E00E94890160E0CF
:101A700089E00E94890160E08BE00E948901109258
:101A800022051092210510927005109292050E9475
:101A90005D03D092E504C092E404F092E704E09282
:101AA000E6041092350680913A06823018F098E0EC
:101AB000909335068093380662E370E080E090E012
:101AC0000E94DF0160913B0680E396E00E94E10501
:101AD00068EE73E080E090E00E94DF0160E380E365
:101AE00096E00E94A0060BE416E4C8010197F1F706
:101AF00060E380E396E00E94A006C8010197F1F739
:101B000060E380E396E00E94A00683E592E00197FF
:101B1000F1F760E280E396E00E94A006609135064E
:101B2000606240E080E396E00E94B90684E0809322
:101B3000360640E06CE080E396E00E94B90640E0A3
:101B400061E080E396E00E94B9060BE31FE1C80163
:101B50000197F1F782E08093370640E066E080E38A
:101B600096E00E94B90640E062E080E396E00E94C1
:101B7000B906C8010197F1F769E871E080E396E0E2
:101B80000E94ED0789E891E00E945F078BE00E94C8
:101B9000320121E030E0892B11F030E020E0C90172
:101BA0000E94D80789E00E94320121E0892B09F4C4
:101BB00020E020930A0561E080E00E94D0068BE0DF
:101BC0000E943201892B09F0C8C26AE971E080E302
:101BD00096E00E94ED0782EA91E00E945F0786E0AE
:101BE0008093010585E08093E80440E061E080E3B4
:101BF00096E00E94B9068BE39FE10197F1F768EE4A
:101C000073E080E090E00E94DF0183EF0E94040611
:101C10009C01265E3340BC0190E080E0223031051B
:101C200008F0E5C20E94D61B609314057093150559
:101C3000809316059093170585EF0E9404069C017A
:101C4000265E3340BC0190E080E02230310508F090
:101C5000DDC20E94D61B6B017C01C0921005D092A0
:101C60001105E0921205F0921305809014059090F2
:101C70001505A0901605B090170520E030E040E271
:101C800051E4C501B4010E940B1E18160CF021C3CB
:101C900020E030E040E752E4C501B4010E94D11BCE
:101CA00087FF17C320E030E040EA51E4C701B601E6
:101CB0000E940B1E18160CF00CC320E030E040EA26
:101CC00052E4C701B6010E94D11B87FF02C326E67A
:101CD00036E646EE5FE3C501B4010E94371C20E002
:101CE00030E040E052E40E942D1D4B015C0120E0F9
:101CF00030E048E852E40E942C1D2AE939E949E91C
:101D00005FE30E94371C2B013C0120E030E044E7F8
:101D100052E4C501B4010E942D1D9B01AC01C30119
:101D2000B2010E942D1D2B013C0122E133E840EC61
:101D30005DE3C701B6010E94371C9B01AC01C301E2
:101D4000B2010E942D1D20E030E040E05FE30E94E0
:101D5000371C2B013C0120E030E04EE952E40E94A8
:101D60000B1E18160CF010C1A5019401C501B40199
:101D70000E94371C698F7A8F8B8F9C8FA7019601E9
:101D8000C701B6010E94371C6D8F7E8F8F8F98A37D
:101D900021E133E243E050E4C501B4010E94371C65
:101DA00029E134E849E252E40E942C1D2B013C0158
:101DB00026E13BE442E251E4C701B6010E94371C30
:101DC0009B01AC01C301B2010E942D1D2B013C01FE
:101DD00028E436E246E65EEBC501B4010E94371CFA
:101DE000A70196010E94371C9B01AC01C301B201FF
:101DF0000E942D1D2B013C0120EE3FE040EE5BEBED
:101E0000698D7A8D8B8D9C8D0E94371C9B01AC0156
:101E1000C301B2010E942D1D2B013C0128EF37E8C0
:101E200040E65DEB6D8D7E8D8F8D98A10E94371CF5
:101E30009B01AC01C301B2010E942D1D2B013C018D
:101E40002CEA3DE041EA5AE3698D7A8D8B8D9C8DB9
:101E50000E94371CA70196010E94371C9B01AC0110
:101E6000C301B2010E942D1D2B013C0128EC3FE86B
:101E70004FE55AE3C501B4010E94371C2D8D3E8DFC
:101E80004F8D58A10E94371C9B01AC01C301B201C8
:101E90000E942D1D2B013C0121EF3BE845E056EB54
:101EA000698D7A8D8B8D9C8D0E94371C2D8D3E8D7A
:101EB0004F8D58A10E94371C9B01AC01C301B20198
:101EC0000E942D1D2B013C0120E030E040E551E453
:101ED000C701B6010E94D11B87FFB0C120E030E0EE
:101EE00040EA52E4C501B4010E940B1E87FDA6C161
:101EF00020E030E040EE52E4C501B4010E94D11B65
:101F0000181614F40C94A717A701960160E070E06E
:101F100080E591E40E942C1D20E030E040E85EE383
:101F20000E94371C6B017C0120E030E04EEB52E454
:101F3000C501B4010E942C1D4B015C0120E030E082
:101F4000A9010E940B1E18160CF06FC1A501940187
:101F500060E070E088E891E40E942C1D2EE33DEEE5
:101F600040E75DE30E94371C0E94161E9B01AC01F6
:101F7000C701B6010E94371C9B01AC01C301B2012D
:101F80000E942C1D2B013C0120E030E040E052E497
:101F9000C301B2010E942C1D26E636E646EE5FE341
:101FA0000E94991D6B017C01C0920C05D0920D0519
:101FB000E0920E05F0920F0520E030E040E251E49F
:101FC0000E940B1E87FD85C120E030E04CE852E402
:101FD000C701B6010E94D11B18160CF47AC11092E9
:101FE0000B058BE00E9432018C0180910A0568ECA0
:101FF00071E0882309F46DC483E995E00E94ED0740
:1020000080910A0590E00E94D80788E00E94320182
:102010005C0187E00E9432014C0186E00E9432019F
:102020006C0183E00E9432017C0161E070E0AB282A
:1020300011F070E060E0072E000C880B990B0E94F5
:10204000D81B20E030E040E05FE30E94371C2B010A
:102050003C0161E070E0892811F070E060E0072E3B
:10206000000C880B990B0E94D81B9B01AC01C3018B
:10207000B2010E942D1D4B015C0161E070E0CD2892
:1020800011F070E060E0660F771F072E000C880BE0
:10209000990B0E94D81B9B01AC01C501B4010E94A1
:1020A0002D1D4B015C01EF2821F4B7FAB094B7F86D
:1020B000B0948092060590920705A0920805B09210
:1020C000090526E636E64EE951E4C501B4010E9451
:1020D0002D1D1B012C012AE939E941EA51E4C50112
:1020E000B4010E942D1D4B015C0170900B05C09046
:1020F0001405D0901505E0901605F0901705809115
:10210000F104811109C060E471E08BEE94E00E945B
:10211000FE0821E02093F1041092EA041092E904F1
:1021200060E080E00E94D006E091E804772029F08A
:10213000E53031F087E080930105E83008F0E2C037
:10214000F0E0EB55FF4E0C94A11E6D11911205139A
:102150005613AB13E7130114411469E772E080E3EF
:1021600096E00E94ED0783EB91E00E945F0762E03A
:1021700080E00E94D00689E00E94320121E0892B94
:1021800009F420E020930A0563EC71E083E995E00F
:102190000E94ED0780910A0590E00E94D807809187
:1021A0000A058823B9F00E94C6076EED71E080E34E
:1021B00096E00E94ED0785EE91E00E945F0761E0E6
:1021C00080E00E94D0066CE072E080E396E00E941E
:1021D000ED070BCD0E94AA0785EF91E00E945F07F3
:1021E00065E072E080E396E00E94ED07E8CF0E9490
:1021F000D61B22E538EB4FE25BE30E94371C26E654
:1022000036E64BE352E40E942C1D0ECD0E94D61BF5
:1022100020E030E04AEF5AE30E94371C20E030E033
:1022200040EC50E40E942C1D16CD20E030E048E840
:1022300051E4C501B4010E942D1D90CE20E030E094
:102240004AEA52E4C701B6010E940B1E18160CF0B0
:102250009BCE20E030E040EA52E4C501B4010E9488
:102260000B1E87FD91CE20E030E04EEA52E4C5011E
:10227000B4010E94D11B18160CF486CE20E030E089
:102280004AEA52E4C701B6010E942C1D2DEC3CEC39
:102290004CEC5DE30E94371C6B017C01A5019401AD
:1022A00060E070E08EEA92E40E942C1D2DEC3CEC84
:1022B0004CE45EE30E94371C9B01AC01C701B601F0
:1022C0000E94371C9B01AC01C301B2010E942D1D6D
:1022D00059CEB1E0B0930B0584CE87EB92E00E941B
:1022E0005F070115110509F4CDC01092EA041092A0
:1022F000E90463E172E08BEE94E00E94B10834E0FF
:102300003093E8048091EF049091F004892B81F0E0
:10231000E091EB04F091EC048081882349F060E0C7
:102320008091E9040E94D0068BEE94E00E944C025A
:1023300061E080E00E94D0064091100550911105A7
:10234000609112057091130520E0CE0101960E9464
:10235000AC094091140550911505609116057091D6
:10236000170521E0CE0107960E94AC0962E673E0F2
:10237000CE010D960E94FE08BE01695F7F4FCE011F
:102380000D960E947D0865E773E00E946708BE0114
:102390006F5F7F4F0E947D0868E773E00E946708C7
:1023A0000E944C02CE010D960E940F09CE010796A5
:1023B0000E940F09CE0101960E940F0960E080E1A2
:1023C0000E94D0062DEC3CEC4CE45EE3C501B40168
:1023D0000E942C1DAB01BC0121E0CE0101960E94A0
:1023E000AC096AE773E0CE0107960E94FE08BE01C1
:1023F0006F5F7F4FCE0107960E947D080E944C02BE
:10240000CE0107960E940F09CE0101960E940F0986
:1024100062E089E00E94D0064091060550910705D0
:10242000609108057091090521E0CE0101960E9496
:10243000AC09CE0101960E944C02CE0101960E9489
:102440000F0963E080E00E94D0066CE773E0012B87
:1024500011F068E873E080E396E00E94ED0768EE13
:1024600073E080E090E00E94DF0140E050E0452B07
:1024700009F4CBCB0E949202882309F4C6CB0E94B8
:102480000000C3CBA7019601C201B1010E940B1E3F
:10249000181694F41092EA041092E90464E272E0CF
:1024A0008BEE94E00E94B10841E04093E804109262
:1024B000FE041092FD0426CFCE0101960E9417095A
:1024C00065E372E0CE0107960E94FE08BE016F5FD1
:1024D0007F4FCE0107960E947D08BC018BEE94E0F1
:1024E0000E94E708CE0107960E940F09CE010196CF
:1024F0000E940F090E941102C090F904D090FA04C2
:10250000E090FB04F090FC046C197D098E099F0992
:10251000603C77428940910508F4F4CE0E94BC07E4
:102520005EC082E492E00E945F070115110509F088
:10253000DCCEA7019601C201B1010E940B1E181644
:102540000CF058C08091FD049091FE047C01AFEF27
:10255000EA1AFA0AF092FE04E092FD0404969093BF
:10256000EA048093E9046EE572E08BEE94E00E9449
:10257000B108B7E0EB16F1040CF4C4CE1092EA04F3
:102580001092E90460E672E08BEE94E00E94B108DC
:1025900082E08093E80440E1E42EF12C60E085E0E5
:1025A00090E00E94720721E0E21AF108B9F760E0BA
:1025B00081E190E00E94720760E081E190E00E947A
:1025C000720760E081E190E00E94720761E081E1C2
:1025D00090E00E94720781E792E00E945F070E94EC
:1025E00011026093F9047093FA048093FB049093B2
:1025F000FC0488CE80E892E00E945F071092FE04FF
:102600001092FD041092E8047DCE8FE492E00E94C7
:102610005F070115110509F068CEA7019601C501F4
:10262000B4010E94D11B87FF0EC01092EA041092E1
:10263000E9046CE872E08BEE94E00E94B10883E05C
:102640008093E80434CFCE0101960E9417096DE90A
:1026500072E0CE0107960E94FE08BE016F5F7F4FB9
:10266000CE0107960E947D08BC018BEE94E00E948B
:10267000E708CE0107960E940F09CE0101960E943D
:102680000F090E941102C090F904D090FA04E09062
:10269000FB04F090FC046C197D098E099F09603CD5
:1026A00077428940910508F42DCE38CF8AEA92E02E
:1026B0000E945F070115110509F017CEA7019601C9
:1026C000C501B4010E94D11B87FF39C08091FD0470
:1026D0009091FE047C014FEFE41AF40AF092FE049C
:1026E000E092FD0404969093EA048093E9046EE579
:1026F00072E08BEE94E00E94B10857E0E516F10419
:102700000CF400CE1092EA041092E90460E672E044
:102710008BEE94E00E94B1081092E8040E9411022E
:102720006093F9047093FA048093FB049093FC0483
:102730000E94C60787EC92E00E945F07E3CD80E825
:1027400092E00E945F071092FE041092FD0482E066
:102750008093E804D7CD87ED92E00E945F078091D7
:10276000FD049091FE047C01AFEFEA1AFA0AF092A0
:10277000FE04E092FD040115110509F43BCF049617
:102780009093EA048093E9046EE572E08BEE94E0A6
:102790000E94B108B7E0EB16F1040CF4B3CD10922F
:1027A000EA041092E9046FEE72E08BEE94E00E946E
:1027B000B1080E94C6070E94A5071092FE0410925D
:1027C000FD0425E02093E80484EE92E0B5CF6FEE9F
:1027D00072E08BEE94E00E94B10884EE92E00E94D9
:1027E0005F070115110509F08DCD1092EA041092D2
:1027F000E90463E172E08BEE94E00E94B10886E0A8
:102800001FCF80E093E00E945F078091FD049091CC
:10281000FE047C013FEFE31AF30AF092FE04E0921B
:10282000FD040115110509F504969093EA048093BF
:10283000E9046EE572E08BEE94E00E94B10847E097
:10284000E416F1040CF45ECD1092EA041092E9044F
:1028500067E173E08BEE94E00E94B1080E94A50747
:1028600088E293E00E945F07CDCE80E892E00E946C
:102870005F071092FE041092FD0455E05093E804A7
:1028800041CD84E493E00E945F073EE1E32EF12C0A
:1028900060E081E190E00E94720781E0E81AF108AF
:1028A000B9F760E085E090E00E94720760E085E0A3
:1028B00090E00E94720761E085E090E00E9472075C
:1028C000711020CD64E673E08BEE94E00E94B108B5
:1028D00099CE83E995E00E94ED0780910A0590E08A
:1028E0000E94D80788E00E9432015C0187E00E94C4
:1028F00032016C0186E00E9432017C0161E070E0EF
:10290000AB2811F070E060E0072E000C880B990BEB
:102910000E94D81B20E030E040E05FE30E94371CBB
:102920004B015C0161E070E0CD2811F070E060E0E7
:10293000072E000C880B990B0E94D81B9B01AC0141
:10294000C501B4010E942D1D4B015C01EF2821F44B
:10295000B7FAB094B7F8B094809206059092070544
:10296000A0920805B09209052AE939E949ED51E438
:10297000C501B4010E942D1D2B013C0140920205AE
:1029800050920305609204057092050526E636E62E
:1029900046ED51E4C501B4010E942D1D698F7A8F67
:1029A0008B8F9C8F30900B0580900C0590900D05BF
:1029B000A0900E05B0900F05C0901005D0901105A5
:1029C000E0901205F0901305332041F0809101054D
:1029D0008D7F843019F088E080930105E091010536
:1029E000E930C0F4F0E0E950FB4E0C94A11E001554
:1029F0009415F01528166B16771691169716BA16B9
:102A00008DE394E00E945F070115110581F194E0C8
:102A1000909301052DEC3CEC4CE45EE360910205E3
:102A20007091030580910405909105050E942C1D6D
:102A30006B017C0160E080E00E94D00660E471E000
:102A4000CE010D960E94FE08E0910105E93008F0E4
:102A5000CDC1F0E0E25DFA4E0C94A11ED4167D17B4
:102A60008A17911798179B179E17A117A417A501EE
:102A70009401C301B2010E94D11B87FF12C020E064
:102A800030E044E052E4C701B6010E940B1E181664
:102A900044F4A1E0A09301051092FE041092FD04FD
:102AA000B9CF10920105C090F904D090FA04E090DB
:102AB000FB04F090FC040E941102B0ECCB0EB7E2D4
:102AC000DB1EB9E0EB1EF11CA7019601261B370B9C
:102AD000480B590BCA01B90128EE33E040E050E041
:102AE0000E947F1ECA01B9014AE00E9419076EE3E5
:102AF00071E083E995E00E940A070E941102C090EC
:102B0000F904D090FA04E090FB04F090FC046C19F6
:102B10007D098E099F09603C77428940910508F440
:102B200079CF0E94BC0746C084E993E00E945F070A
:102B30000115110509F06BCFA5019401C301B20184
:102B40000E94D11B87FF41C020E030E044E052E406
:102B5000C701B6010E940B1E1816BCF58091FD043A
:102B60009091FE0401969093FE048093FD040797D4
:102B70000CF450CF82E08093010520E1E22EF12C8D
:102B800060E081E190E00E94720741E0E41AF10800
:102B9000B9F794E0E92EF12C60E085E090E00E9426
:102BA000720751E0E51AF108B9F761E085E090E0BD
:102BB0000E9472070E9411026093F9047093FA0454
:102BC0008093FB049093FC0425CF80E892E00E9460
:102BD0005F071092FE041092FD04109201051ACFB7
:102BE0008FE094E00E945F070115110509F00FCFF7
:102BF000A5019401698D7A8D8B8D9C8D0E940B1E91
:102C0000181654F020E030E040EF51E4C701B6015F
:102C10000E94D11B87FF04C083E0809301053CCF55
:102C200082E0809301050E941102C090F904D090C7
:102C3000FA04E090FB04F090FC046C197D098E0905
:102C40009F09603C77428940910508F4E3CE69CF43
:102C500087EA93E00E945F070115110509F0D7CEBE
:102C6000A5019401698D7A8D8B8D9C8D0E940B1E20
:102C7000181654F020E030E040EF51E4C701B601EF
:102C80000E94D11B87FF1BC08091FD049091FE0420
:102C900001969093FE048093FD0407970CF4BACE3E
:102CA000109201050E9411026093F9047093FA04D6
:102CB0008093FB049093FC040E94AA07ABCE80E8AB
:102CC00092E00E945F071092FE041092FD0482E0E1
:102CD000809301059FCE8BEB93E00E945F071092DB
:102CE000FE041092FD04B5E0B093010593CE88EC8C
:102CF00093E00E945F078091FD049091FE0401968D
:102D00009093FE048093FD040115110509F45DCF35
:102D100007970CF47FCE0E94AA070E94A50786E0C1
:102D2000D7CF0115110509F075CE87E076CF80EE7B
:102D300093E00E945F078091FD049091FE0401964C
:102D40009093FE048093FD040115110551F407973B
:102D50000CF460CE0E94A50788E293E00E945F0712
:102D60003CCF80E892E00E945F071092FE04109230
:102D7000FD04D5CF80E1E82EF12C60E085E090E005
:102D80000E94720721E0E21AF108B9F760E081E1E0
:102D900090E00E94720761E081E190E00E9472077A
:102DA000332009F41ACF36CECE0101960E941709BE
:102DB00067EF73E0CE0107960E94FE08BE016F5FC9
:102DC0007F4FCE0107960E947D08BC01CE010D9673
:102DD0000E94E708CE0107960E940F09CE010196D6
:102DE0000E940F09109200051092FF048091FF04C9
:102DF000909100050196909300058093FF04CE0109
:102E00000D960E944C02CE010D960E940F0961E0C2
:102E100080E00E94D00640910C0550910D05609114
:102E20000E0570910F0521E0CE0101960E94AC09BC
:102E30004091100550911105609112057091130594
:102E400020E0CE0107960E94AC09409114055091F4
:102E50001505609116057091170521E0CE010D96BC
:102E60000E94AC0962E673E0CE0143960E94FE0820
:102E7000BE01635F7F4FCE0143960E947D0865E7E8
:102E800073E00E946708BE01695F7F4F0E947D0862
:102E900068E773E00E9467086DE974E00E946708C4
:102EA000BE016F5F7F4F0E947D0860E471E00E9469
:102EB00067080E944C02CE0143960E940F09CE0182
:102EC0000D960E940F09CE0107960E940F09CE01B0
:102ED00001960E940F0960E08EE00E94D0066CED22
:102EE00071E080E396E00E94ED0762E080E00E94DE
:102EF000D00621E0B701A60198CA8091FF0464E0E2
:102F000074E080FD02C065E174E0CE010D960E9480
:102F1000B1086CCFCE0101960E94170966E274E0F9
:102F200049CF8091FF0463E374E080FDEECFEBCFE7
:102F300064E474E0EACF65E574E0E7CF6AE674E044
:102F4000E4CF6BE774E0E1CF6CE874E0DECF20E023
:102F500030E04AEA52E4C701B6010E940B1E18167F
:102F600014F00C94C40F7FC9EF920F931F93CF936B
:102F7000DF93E80134E047FD34E1042E000C550BEB
:102F800057FF03C0519541955109E32E022F242F7D
:102F9000AE010E945E18CE01DF91CF911F910F917B
:102FA000EF900895BB274A3031F4992322F4BDE213
:102FB000909581959F4F0C94DE17BB27FB015527F9
:102FC000AA27880F991FAA1FA41710F0A41B839586
:102FD0005051B9F7A05DAA3308F0A95DA1930097FD
:102FE00079F7B111B1931192CB010C94C11B0F93DE
:102FF0001F93CF93DF93009759F46115710541F446
:10300000F0E0E0E0CF01DF91CF911F910F910895A3
:103010008B01EC016EE070E081E090E00E944218CC
:10302000FC01892B69F380E883830115110571F098
:103030001387028781E8838380914B0690914C0629
:10304000892B21F4F0934C06E0934B062097D1F2A4
:10305000D187C08783818260838380914D06909160
:103060004E06892B79F6F0934E06E0934D0680913B
:103070004F0690915006892B29F6F0935006E09365
:103080004F06C0CF0F931F93CF93DF93869F80018E
:10309000879F100D969F100D1124C8010E94BD1925
:1030A000EC01009729F0A80170E060E00E94BA1BD3
:1030B000CE01DF91CF911F910F910895A9E0B0E06B
:1030C000E4E6F8E10C94FB1C6A01F22EB02E102FFE
:1030D000FBE3AF2EA01608F41BE31F5F012F27E0D0
:1030E000AE014F5F5F4F0E94E21ABC018981982FA9
:1030F0009970913009F43FC09BE2E1FC04C09E2D21
:103100009170E0FC3AC05E2D5071E82FE87083FFAB
:1031100046C084E0911101C083E0EF2DE81B8F15BC
:1031200008F0E0E0D6018E2F20E2552351F19923DB
:1031300029F0D6019C93C60101966C0196012D5F82
:103140003F4FE2FE24C08EE4D6018C9391E41196A9
:103150009C93119712968C93D9018E2F90E2811136
:103160001BC0E20FF32FF11D10828EEF9FEF299607
:10317000ECE00C94171D9DE2C6CF90E2C4CF2D93D6
:1031800081508111FCCFCE0ED11CE0E0D0CF8EE675
:10319000D6018C9391E6DBCF9D938150E0CF482FF1
:1031A000447082FF3DC084E0911101C083E08F151F
:1031B00010F4EF2DE81BD6018E2F20E2552309F1E4
:1031C000992329F0D6019C93C60101966C019601C2
:1031D0002D5F3F4FE2FE1BC089E4D6018C938EE445
:1031E00011968C93119786E412968C93D9018E2FA9
:1031F00090E2882309F4B5CF9D938150FACF2D93A7
:1032000081508111FCCFCE0ED11CE0E0D9CF89E6F0
:10321000D6018C938EE611968C93119786E6E4CFB7
:103220009B0177FF02C030E020E0A1E0B0E0911107
:1032300002C0B0E0A0E0F9013196AE0FBF1F8B2CA9
:10324000912CBB2009F461C05401EFEFAE1ABE0A05
:10325000AA0DBB1DFA161B0619F014F04F2D4A1BC0
:10326000511188C0E3FC59C07601A42FB0E2A1112E
:103270004FC0C40ED11C992309F45BC040E0D601B5
:103280001196F60190836D01552309F448C0012F72
:10329000060F9A81582F507184FF03C0913309F4AF
:1032A000015010160CF047C0093008F008E0EEE2BB
:1032B000FE2E5B01A01AB1088501919481949108BA
:1032C0002F3F320729F4D601FC92F60131966F01A7
:1032D0006217730794F1021713077CF5DB01A21B39
:1032E000B30BAA24A394B12CAC0EBD1EAA0DBB1D1A
:1032F00011968C9121503109D60111962815390566
:10330000F4F0F60180836D01DBCFB12CA12CA0CFAE
:10331000F701B1937F01A150AACF9111B0CFD6018F
:10332000942F50E302C05D9391509111FCCFC40ED5
:10333000D11C40E0ACCF01E0BACF80E3DBCF621715
:10334000730731F4963388F4953311F4552369F0FB
:10335000F6018083FD01842F90E2811108C0A40F43
:10336000B11D1C9290E080E002CF81E3F1CF9193F8
:103370008150F3CF911183CF8ACF0F931F93CF93B7
:10338000DF938230910510F482E090E0E0915306E3
:10339000F091540630E020E0B0E0A0E0309799F4DE
:1033A0002115310509F44AC0281B390B2430310599
:1033B000D8F58A819B816115710589F1FB019383A1
:1033C0008283FE0111C0408151810281138148171F
:1033D0005907E0F04817590799F4109761F01296D1
:1033E0000C93129713961C933296CF01DF91CF91D5
:1033F0001F910F9108950093530610935406F4CF34
:103400002115310551F04217530738F0A901DB01AE
:103410009A01BD01DF01F801C1CFEF01F9CF90930F
:10342000540680935306CDCFFE01E20FF31F819324
:1034300091932250310939832883D7CF20915106A7
:1034400030915206232B41F4209102013091030167
:1034500030935206209351062091000130910101D2
:103460002115310541F42DB73EB74091040150912B
:103470000501241B350BE0915106F0915206E2172D
:10348000F307A0F42E1B3F0B2817390778F0AC0187
:103490004E5F5F4F2417350748F04E0F5F1F509364
:1034A000520640935106819391939FCFF0E0E0E064
:1034B0009CCFCF93DF930097E9F0FC013297138202
:1034C0001282A0915306B0915406ED0130E020E045
:1034D0001097A1F420813181820F931F2091510612
:1034E000309152062817390709F061C0F09352064F
:1034F000E0935106DF91CF910895EA01CE17DF07DF
:10350000E8F54A815B819E0141155105B1F7E9015A
:10351000FB83EA8349915991C40FD51FEC17FD072E
:1035200061F4808191810296840F951FE90199834E
:103530008883828193819B838A83F0E0E0E0129606
:103540008D919C9113970097B9F52D913C9111970E
:10355000CD010296820F931F2091510630915206A1
:103560002817390739F6309751F510925406109202
:103570005306B0935206A0935106BCCFD383C283A7
:1035800040815181840F951FC817D90761F44E5FA0
:103590005F4F88819981480F591F518340838A81E9
:1035A0009B81938382832115310509F0B0CFF0937D
:1035B0005406E09353069ECFFD01DC01C0CF138279
:1035C0001282D7CF283008F027E03327DA01990F8D
:1035D000311D87FD916000966105710539F43260F7
:1035E0002E5F3D9330E32A95E1F708959F3F30F039
:1035F00080387105610509F03C5F3C5F3D93913077
:1036000008F08068911DDF93CF931F930F93FF9273
:10361000EF92192F987F9695E92F96959695E90F39
:10362000FF27EE53FF4F99273327EE24FF24A701EE
:10363000E70105900894079428F4360FE71EF81E5A
:10364000491F511D660F771F881F991F0694A1F708
:103650000590079428F4E70EF81E491F561FC11D58
:10366000770F881F991F661F0694A1F7059007948E
:1036700028F4F80E491F561FC71FD11D880F991F28
:10368000661F771F0694A1F70590079420F4490F51
:10369000561FC71FD81F990F661F771F881F0694D4
:1036A000A9F784911095177041F0D695C795579555
:1036B0004795F794E7941A95C1F7E8E6F0E0689427
:1036C0001590159135916591959105907FE27395CF
:1036D000E118F10A430B560BC90BD009C0F7E10CF6
:1036E000F11E431F561FC91FD01D7EF4703311F405
:1036F0008A95E6CFE894015030F0080F0AF40027CD
:10370000021708F4202F2395022F7A3328F079E34B
:103710007D932A95E9F710C07D932A9589F6069442
:1037200097956795379517951794E118F10A430B0C
:10373000560BC90BD00998F023957E9173957A3377
:1037400008F070E37C932013B8F77E9170617D934D
:1037500030F0839571E37D9370E32A95E1F71124AE
:10376000EF90FF900F911F91CF91DF91992787FDE7
:1037700090950895DC0101C06D9341505040E0F7F1
:103780000895DC01FC01672F71917723E1F73297EF
:1037900004C07C916D9370836291AE17BF07C8F32C
:1037A00008950E94131C08F481E00895E89409C06C
:1037B00097FB3EF490958095709561957F4F8F4F64
:1037C0009F4F9923A9F0F92F96E9BB279395F6957A
:1037D000879577956795B795F111F8CFFAF4BB0FF8
:1037E00011F460FF1BC06F5F7F4F8F4F9F4F16C05C
:1037F000882311F096E911C0772321F09EE8872FE6
:10380000762F05C0662371F096E8862F70E060E0A1
:103810002AF09A95660F771F881FDAF7880F96951A
:10382000879597F90895990F0008550FAA0BE0E8BE
:10383000FEEF16161706E807F907C0F01216130672
:10384000E407F50798F0621B730B840B950B39F4B2
:103850000A2661F0232B242B252B21F408950A2618
:1038600009F4A140A6958FEF811D811D08950E9446
:103870004A1C0C94BB1C0E94AD1C38F00E94B41C66
:1038800020F0952311F00C94A41C0C94AA1C112474
:103890000C94EF1C0E94CC1C70F3959FC1F3950F04
:1038A00050E0551F629FF001729FBB27F00DB11DC4
:1038B000639FAA27F00DB11DAA1F649F6627B00D54
:1038C000A11D661F829F2227B00DA11D621F739F3D
:1038D000B00DA11D621F839FA00D611D221F749F4B
:1038E0003327A00D611D231F849F600D211D822F92
:1038F000762F6A2F11249F5750409AF0F1F08823B9
:103900004AF0EE0FFF1FBB1F661F771F881F9150E5
:103910005040A9F79E3F510580F00C94A41C0C94D4
:10392000EF1C5F3FE4F3983ED4F386957795679557
:10393000B795F795E7959F5FC1F7FE2B880F911D0F
:103940009695879597F9089597F99F6780E870E0B5
:1039500060E008959FEF80EC089500240A94161605
:10396000170618060906089500240A94121613066D
:10397000140605060895092E0394000C11F48823FB
:1039800052F0BB0F40F4BF2B11F460FF04C06F5F17
:103990007F4F8F4F9F4F089557FD9058440F551FED
:1039A00059F05F3F71F04795880F97FB991F61F0C1
:1039B0009F3F79F087950895121613061406551F38
:1039C000F2CF4695F1DF08C0161617061806991FA4
:1039D000F1CF86957105610508940895E894BB2799
:1039E00066277727CB0197F908952F923F924F9240
:1039F0005F926F927F928F929F92AF92BF92CF927F
:103A0000DF92EF92FF920F931F93CF93DF93CDB787
:103A1000DEB7CA1BDB0B0FB6F894DEBF0FBECDBFFF
:103A200009942A88398848885F846E847D848C84D0
:103A30009B84AA84B984C884DF80EE80FD800C81D9
:103A40001B81AA81B981CE0FD11D0FB6F894DEBFBC
:103A50000FBECDBFED0108955058BB27AA270E9485
:103A6000441D0C94BB1C0E94AD1C38F00E94B41C79
:103A700020F039F49F3F19F426F40C94AA1C0EF49C
:103A8000E095E7FB0C94A41CE92F0E94CC1C58F392
:103A9000BA17620773078407950720F079F4A6F533
:103AA0000C94EE1C0EF4E0950B2EBA2FA02D0B01FA
:103AB000B90190010C01CA01A0011124FF27591B73
:103AC00099F0593F50F4503E68F11A16F040A22F79
:103AD000232F342F4427585FF3CF469537952795EA
:103AE000A795F0405395C9F77EF41F16BA0B620BE9
:103AF000730B840BBAF09150A1F0FF0FBB1F661F30
:103B0000771F881FC2F70EC0BA0F621F731F841F72
:103B100048F4879577956795B795F7959E3F08F098
:103B2000B0CF9395880F08F09927EE0F979587955A
:103B300008950E94AD1D0C94BB1C0E94B41C58F04B
:103B40000E94AD1C40F029F45F3F29F00C94A41CA6
:103B500051110C94EF1C0C94AA1C0E94CC1C68F30D
:103B60009923B1F3552391F3951B550BBB27AA2736
:103B700062177307840738F09F5F5F4F220F331F70
:103B8000441FAA1FA9F335D00E2E3AF0E0E832D038
:103B900091505040E695001CCAF72BD0FE2F29D03B
:103BA000660F771F881FBB1F261737074807AB070D
:103BB000B0E809F0BB0B802DBF01FF2793585F4F82
:103BC0003AF09E3F510578F00C94A41C0C94EF1C25
:103BD0005F3FE4F3983ED4F3869577956795B79564
:103BE000F7959F5FC9F7880F911D9695879597F96F
:103BF0000895E1E0660F771F881FBB1F62177307E8
:103C00008407BA0720F0621B730B840BBA0BEE1FFC
:103C100088F7E09508950E94131C08F48FEF08952B
:103C200019F416F40C94AA1C0C94561E0E94D41C71
:103C3000B8F39923C9F3B6F39F57550B87FF0E943A
:103C4000641E0024A0E640EA90018058569597959E
:103C500028F4805C660F771F881F20F0261737072F
:103C6000480730F4621B730B840B202931294A2B3F
:103C7000A69517940794202531254A2758F7660FF3
:103C8000771F881F20F026173707480730F4620B8C
:103C9000730B840B200D311D411DA09581F7B901D7
:103CA000842F9158880F9695879508959F3F31F0FE
:103CB000915020F4879577956795B795880F911D5A
:103CC0009695879597F9089591505040660F771F04
:103CD000881FD2F7089597FB072E16F4009407D09B
:103CE00077FD09D00E94A71E07FC05D03EF49095F1
:103CF00081959F4F0895709561957F4F0895A1E23A
:103D00001A2EAA1BBB1BFD010DC0AA1FBB1FEE1F55
:103D1000FF1FA217B307E407F50720F0A21BB30BA0
:103D2000E40BF50B661F771F881F991F1A9469F71C
:103D300060957095809590959B01AC01BD01CF0178
:103D40000895EE0FFF1F0590F491E02D0994AA1B32
:103D5000BB1B51E107C0AA1FBB1FA617B70710F076
:103D6000A61BB70B881F991F5A95A9F780959095A8
:103D7000BC01CD010895B0E0A0E0E1ECFEE10C94BF
:103D8000F71C8C01009751F4CB010E94BD198C01E6
:103D9000C801CDB7DEB7E0E10C94131DFC01E60FBE
:103DA000F71F9C0122503109E217F30708F49DC068
:103DB000D901CD91DC911197C617D70798F0C5307E
:103DC000D10530F3CE0104978617970708F3C61B79
:103DD000D70B2297C193D1936D937C93CF010E940F
:103DE000591AD6CF5B01AC1ABD0A4C018C0E9D1E30
:103DF000A0915306B0915406512C412CF12CE12C8A
:103E0000109731F5809151069091520688159905C9
:103E100009F05CC04616570608F058C080910001B2
:103E200090910101009741F48DB79EB74091040134
:103E300050910501841B950BE817F90708F055C050
:103E4000F0935206E0935106F90171836083A0CF8D
:103E50008D919C91119712966C90129713967C906D
:103E60001397A815B90559F56C0142E0C40ED11C91
:103E7000CA14DB0420F1AC014A195B09DA0112967D
:103E8000159780F06282738251834083D9016D93CC
:103E90007C93E114F10471F0D7011396FC93EE9337
:103EA000129776CF22968C0F9D1FF9019183808304
:103EB000F301EFCFF0935406E093530669CF481611
:103EC000590608F42C017D01D3019ACFCB010E9441
:103ED000BD197C01009749F0AE01B8010E94781F1E
:103EE000C8010E94591A870153CF10E000E050CF5B
:103EF000FB01DC0102C001900D9241505040D8F707
:103F00000895FB01DC0101900D920020E1F7089576
:103F1000F894FFCF00005506800000004000140018
:103F2000540000000000C8021F025502150386025B
:103F30006402780200000000B2058505F5055B0506
:103F40007E056B055C050000000004071F02F505F7
:103F500035030D0A006972206F6E00796573006E7B
:103F60006F0030003A00456E64206F662062617415
:103F7000746572793A200048656174657220656ED7
:103F800061626C65643A200044697361626C65200B
:103F90004F54502072656C6F61643A2000202020DD
:103FA000202057454C434F4D45202020200062697A
:103FB0007361626C65002020202020626973616259
:103FC0006C6520202020002020202020656E61626A
:103FD0006C652020202000202020202048454154CE
:103FE00045525F4D4F44455F53454C4543544F52F6
:103FF0003D004865617465720020202020204865DE
:104000006174657220202020002020202020436F32
:104010006F6C65722020202000436F6F6C6572000A
:10402000616374697665004F4E2020202020202097
:10403000202020204F464600446973202020202065
:10404000202020202020456E0048656174696E673D
:10405000204F46462000424F554E43494E475F464B
:104060004F525F48454154494E475F454E41424C8F
:1040700045003E002020202020202020202020203D
:10408000202020200068656174696E675F656E613D
:10409000626C650046616C736520616C61726D00D5
:1040A000456E2020202020202020202020446973DD
:1040B0000048656174696E6720204F4E2000424FB2
:1040C000554E43494E475F464F525F48454154491C
:1040D0004E475F44495341424C45006865617469ED
:1040E0006E675F64697361626C6500424F554E4351
:1040F000494E475F464F525F4845415445525F4FD6
:10410000464600202020202020204F464620202008
:1041100020202000424F554E43494E475F464F52A4
:104120005F4845415445525F4F4E002020202020DB
:1041300020204F4E202020202020200041435F449B
:10414000495341424C454420425554544F4E20520D
:10415000454C4541534544004845415445525F5400
:10416000454D50455241545552455F53454E534F6E
:10417000525F4641554C5400202053454E534F52F8
:104180005F4641554C542020002048002500530034
:10419000554E4954204F6E2020202000554E495442
:1041A000204F666620202000424F554E43494E471F
:1041B0005F464F525F41435F4F4E00424F554E4363
:1041C000494E475F464F525F41435F4F464600416D
:1041D000435F44495341424C494E4700424F554E7C
:1041E00043494E475F464F525F41435F4449534105
:1041F000424C4500424F554E43494E475F464F5251
:104200005F41435F454E41424C450041435F4F464D
:104210004620202020202000424F554E43455F4637
:104220004F525F41435F4F4E0020202020424F55A8
:104230004E43452020202020200041435F4F4E2048
:1042400020202020202000424F554E435F464F52F1
:104250005F41435F4F464600202041435F4449533E
:1042600041424C494E472020002020424F554E43AA
:104270005F464F525F44495341424C20200020206A
:1042800041435F44495341424C4544202020004271
:104290004F554E5F464F5F41435F454E41424C0094
:1042A000202153454E534F525F4641554C542120D7
:0442B00000202300C7
:107800000C94343C0C94513C0C94513C0C94513CE1
:107810000C94513C0C94513C0C94513C0C94513CB4
:107820000C94513C0C94513C0C94513C0C94513CA4
:107830000C94513C0C94513C0C94513C0C94513C94
:107840000C94513C0C94513C0C94513C0C94513C84
:107850000C94513C0C94513C0C94513C0C94513C74
:107860000C94513C0C94513C11241FBECFEFD8E036
:10787000DEBFCDBF11E0A0E0B1E0ECE9FFE702C060
:1078800005900D92A230B107D9F712E0A2E0B1E065
:1078900001C01D92AD30B107E1F70E942D3D0C945F
:1078A000CC3F0C94003C982F959595959595959582
:1078B000905D8F708A307CF0282F295A8091C0000B
:1078C00085FFFCCF9093C6008091C00085FFFCCF60
:1078D0002093C6000895282F205DF0CF982F809127
:1078E000C00085FFFCCF9093C6000895EF92FF92F1
:1078F0000F931F93EE24FF2487018091C00087FD22
:1079000017C00894E11CF11C011D111D81E4E8164B
:1079100082E4F8068FE0080780E0180770F3E09132
:107920000401F091050109958091C00087FFE9CF1E
:107930008091C6001F910F91FF90EF9008950E94D3
:10794000763C982F8091C00085FFFCCF9093C600B5
:1079500091362CF490330CF09053892F089597555D
:10796000892F08951F930E949F3C182F0E949F3CCF
:107970001295107F810F1F9108951F93182F882350
:1079800021F00E94763C1150E1F71F9108951F935A
:10799000182F0E94763C803249F0809103018F5F5E
:1079A000809303018530C1F01F9108958091C0003C
:1079B00085FFFCCF84E18093C6008091C00085FFE5
:1079C000FCCF1093C6008091C00085FFFCCF80E102
:1079D0008093C6001F910895E0910401F091050184
:1079E00009951F9108950E94763C803241F0809164
:1079F00003018F5F80930301853081F008958091AA
:107A0000C00085FFFCCF84E18093C6008091C00058
:107A100085FFFCCF80E18093C6000895E0910401CA
:107A2000F09105010995089540E951E08823A1F0FE
:107A30002D9A28EE33E0FA013197F1F721503040CA
:107A4000D1F72D9828EE33E0FA013197F1F7215064
:107A50003040D1F7815061F708953F924F925F9285
:107A60006F927F928F929F92AF92BF92CF92DF924E
:107A7000EF92FF920F931F93CF93DF93000080E16B
:107A80008093C4001092C50088E18093C10086E015
:107A90008093C2005098589A259A81E00E94143D24
:107AA00024E1F22E9EE1E92E85E9D82E0FE0C02ECA
:107AB00010E1B12EAA24A394B1E49B2EA6E58A2E50
:107AC000F2E57F2EE0E26E2E79E4572E63E5462E36
:107AD00050E5352E0E94763C8033B1F18133B9F107
:107AE000803409F46FC0813409F476C0823409F41B
:107AF00085C0853409F488C0803531F1823521F1A3
:107B0000813511F1853509F485C0863509F48DC0BC
:107B1000843609F496C0843709F403C1853709F423
:107B200072C1863709F466C0809103018F5F80932C
:107B30000301853079F6E0910401F0910501099582
:107B40000E94763C803351F60E94F33CC3CF0E94E2
:107B5000763C803249F78091C00085FFFCCFF092DF
:107B6000C6008091C00085FFFCCF9092C600809136
:107B7000C00085FFFCCF8092C6008091C00085FFC9
:107B8000FCCF7092C6008091C00085FFFCCF609250
:107B9000C6008091C00085FFFCCF5092C600809146
:107BA000C00085FFFCCF4092C6008091C00085FFD9
:107BB000FCCF3092C6008091C00085FFFCCFB09210
:107BC000C60088CF0E94763C863808F4BDCF0E945C
:107BD000763C0E94F33C7ECF0E94763C803809F4CC
:107BE0009CC0813809F40BC1823809F43CC1883942
:107BF00009F48FC080E00E94C73C6CCF84E10E94F2
:107C0000BD3C0E94F33C66CF85E00E94BD3C0E94D3
:107C1000F33C60CF0E94763C809306010E94763C44
:107C2000809307010E94F33C55CF0E94763C80333D
:107C300009F41DC183E00E94BD3C80E00E94C73C66
:107C400049CF0E94763C809309020E94763C809343
:107C5000080280910C028E7F80930C020E94763C79
:107C6000853409F415C18091080290910902892B8D
:107C700089F000E010E00E94763CF801E85FFE4FDA
:107C800080830F5F1F4F80910802909109020817AF
:107C9000190788F30E94763C803209F045CF809125
:107CA0000C0280FF01C16091060170910701660F0F
:107CB000771F7093070160930601A0910802B091AD
:107CC00009021097C9F0E8E0F1E09B01AD014E0F09
:107CD0005F1FF999FECF32BD21BD819180BDFA9A17
:107CE000F99A2F5F3F4FE417F50799F76A0F7B1F4B
:107CF00070930701609306018091C00085FFFCCF5F
:107D0000F092C6008091C00085FFFCCFB092C60003
:107D1000E1CE83E00E94C73CDDCE82E00E94C73CFA
:107D2000D9CE0E94763C809309020E94763C8093D3
:107D300008028091060190910701880F991F909386
:107D40000701809306010E94763C853409F4A6C0A1
:107D500080910C028E7F80930C020E94763C8032D0
:107D600009F0B8CE8091C00085FFFCCFF092C6002C
:107D7000609108027091090261157105B9F140E046
:107D800050E080910C02A82FA170B82FB27011C0E2
:107D9000BB2309F45CC0E0910601F0910701319624
:107DA000F0930701E09306014F5F5F4F46175707B7
:107DB000E8F4AA2369F3F999FECF209106013091E6
:107DC000070132BD21BDF89A90B58091C00085FFB2
:107DD000FCCF9093C6002F5F3F4F30930701209355
:107DE00006014F5F5F4F4617570718F38091C00099
:107DF00085FDE5CE8091C00085FFF8CFE0CE81E023
:107E00000E94C73C67CE0E94763C803209F08CCE3F
:107E10008091C00085FFFCCFF092C6008091C00029
:107E200085FFFCCFE092C6008091C00085FFFCCFAB
:107E3000D092C6008091C00085FFFCCFC092C600E2
:107E40008091C00085FFFCCFB092C60043CEE09188
:107E50000601F091070194918091C00085FFFCCF4D
:107E60009093C6009CCF80E10E94C73C33CE0E9415
:107E7000763C0E94763C182F0E94763C112309F430
:107E800083C0113009F484C08FE00E94C73C22CE29
:107E900080910C02816080930C02E5CE80910C02EF
:107EA000816080930C0259CF809107018823880F4D
:107EB000880B8A2180930B02809106019091070123
:107EC000880F991F90930701809306018091080203
:107ED00080FF09C080910802909109020196909359
:107EE000090280930802F894F999FECF1127E091D6
:107EF0000601F0910701C8E0D1E08091080290915D
:107F00000902103091F40091570001700130D9F34B
:107F100003E000935700E89500915700017001308D
:107F2000D9F301E100935700E89509901990009169
:107F3000570001700130D9F301E000935700E89534
:107F40001395103498F011270091570001700130FB
:107F5000D9F305E000935700E895009157000170B0
:107F60000130D9F301E100935700E895329602976A
:107F700009F0C7CF103011F00296E5CF112480919F
:107F8000C00085FFB9CEBCCE8EE10E94C73CA2CD19
:0E7F900085E90E94C73C9ECDF894FFCF80008B
:00000001FF
